{
  "address": "0xDf22280fc6fE620bEf461871665c53211e677242",
  "abi": [
    {
      "inputs": [
        {
          "internalType": "address",
          "name": "stakingAsset_",
          "type": "address"
        },
        {
          "internalType": "address",
          "name": "rewardAsset_",
          "type": "address"
        }
      ],
      "stateMutability": "nonpayable",
      "type": "constructor"
    },
    {
      "inputs": [],
      "name": "InvaidAmount",
      "type": "error"
    },
    {
      "inputs": [],
      "name": "NotInRound",
      "type": "error"
    },
    {
      "inputs": [],
      "name": "OnlyAdmin",
      "type": "error"
    },
    {
      "inputs": [],
      "name": "RoundConflicted",
      "type": "error"
    },
    {
      "inputs": [],
      "name": "StakingNotInitiated",
      "type": "error"
    },
    {
      "inputs": [],
      "name": "ZeroReward",
      "type": "error"
    },
    {
      "anonymous": false,
      "inputs": [
        {
          "indexed": true,
          "internalType": "address",
          "name": "user",
          "type": "address"
        },
        {
          "indexed": false,
          "internalType": "uint256",
          "name": "reward",
          "type": "uint256"
        },
        {
          "indexed": false,
          "internalType": "uint256",
          "name": "rewardLeft",
          "type": "uint256"
        },
        {
          "indexed": false,
          "internalType": "uint8",
          "name": "currentRound",
          "type": "uint8"
        }
      ],
      "name": "Claim",
      "type": "event"
    },
    {
      "anonymous": false,
      "inputs": [
        {
          "indexed": false,
          "internalType": "uint256",
          "name": "rewardPerSecond",
          "type": "uint256"
        },
        {
          "indexed": false,
          "internalType": "uint256",
          "name": "startTimestamp",
          "type": "uint256"
        },
        {
          "indexed": false,
          "internalType": "uint256",
          "name": "endTimestamp",
          "type": "uint256"
        },
        {
          "indexed": false,
          "internalType": "uint256",
          "name": "currentRound",
          "type": "uint256"
        }
      ],
      "name": "InitRound",
      "type": "event"
    },
    {
      "anonymous": false,
      "inputs": [
        {
          "indexed": true,
          "internalType": "address",
          "name": "user",
          "type": "address"
        },
        {
          "indexed": false,
          "internalType": "uint256",
          "name": "amount",
          "type": "uint256"
        },
        {
          "indexed": false,
          "internalType": "uint256",
          "name": "userIndex",
          "type": "uint256"
        },
        {
          "indexed": false,
          "internalType": "uint256",
          "name": "userPrincipal",
          "type": "uint256"
        },
        {
          "indexed": false,
          "internalType": "uint8",
          "name": "currentRound",
          "type": "uint8"
        }
      ],
      "name": "Stake",
      "type": "event"
    },
    {
      "anonymous": false,
      "inputs": [
        {
          "indexed": true,
          "internalType": "address",
          "name": "user",
          "type": "address"
        },
        {
          "indexed": false,
          "internalType": "uint256",
          "name": "amount",
          "type": "uint256"
        },
        {
          "indexed": false,
          "internalType": "uint256",
          "name": "userIndex",
          "type": "uint256"
        },
        {
          "indexed": false,
          "internalType": "uint256",
          "name": "userPrincipal",
          "type": "uint256"
        },
        {
          "indexed": false,
          "internalType": "uint8",
          "name": "currentRound",
          "type": "uint8"
        }
      ],
      "name": "Withdraw",
      "type": "event"
    },
    {
      "inputs": [
        {
          "internalType": "uint8",
          "name": "round",
          "type": "uint8"
        }
      ],
      "name": "claim",
      "outputs": [],
      "stateMutability": "nonpayable",
      "type": "function"
    },
    {
      "inputs": [],
      "name": "currentRound",
      "outputs": [
        {
          "internalType": "uint8",
          "name": "",
          "type": "uint8"
        }
      ],
      "stateMutability": "view",
      "type": "function"
    },
    {
      "inputs": [
        {
          "internalType": "uint8",
          "name": "round",
          "type": "uint8"
        }
      ],
      "name": "getPoolData",
      "outputs": [
        {
          "internalType": "uint256",
          "name": "rewardPerSecond",
          "type": "uint256"
        },
        {
          "internalType": "uint256",
          "name": "rewardIndex",
          "type": "uint256"
        },
        {
          "internalType": "uint256",
          "name": "startTimestamp",
          "type": "uint256"
        },
        {
          "internalType": "uint256",
          "name": "endTimestamp",
          "type": "uint256"
        },
        {
          "internalType": "uint256",
          "name": "totalPrincipal",
          "type": "uint256"
        },
        {
          "internalType": "uint256",
          "name": "lastUpdateTimestamp",
          "type": "uint256"
        }
      ],
      "stateMutability": "view",
      "type": "function"
    },
    {
      "inputs": [
        {
          "internalType": "uint8",
          "name": "round",
          "type": "uint8"
        }
      ],
      "name": "getRewardIndex",
      "outputs": [
        {
          "internalType": "uint256",
          "name": "",
          "type": "uint256"
        }
      ],
      "stateMutability": "view",
      "type": "function"
    },
    {
      "inputs": [
        {
          "internalType": "uint8",
          "name": "round",
          "type": "uint8"
        },
        {
          "internalType": "address",
          "name": "user",
          "type": "address"
        }
      ],
      "name": "getUserData",
      "outputs": [
        {
          "internalType": "uint256",
          "name": "userIndex",
          "type": "uint256"
        },
        {
          "internalType": "uint256",
          "name": "userReward",
          "type": "uint256"
        },
        {
          "internalType": "uint256",
          "name": "userPrincipal",
          "type": "uint256"
        }
      ],
      "stateMutability": "view",
      "type": "function"
    },
    {
      "inputs": [
        {
          "internalType": "uint256",
          "name": "rewardPerSecond",
          "type": "uint256"
        },
        {
          "internalType": "uint16",
          "name": "year",
          "type": "uint16"
        },
        {
          "internalType": "uint8",
          "name": "month",
          "type": "uint8"
        },
        {
          "internalType": "uint8",
          "name": "day",
          "type": "uint8"
        },
        {
          "internalType": "uint8",
          "name": "duration",
          "type": "uint8"
        }
      ],
      "name": "initNewRound",
      "outputs": [],
      "stateMutability": "nonpayable",
      "type": "function"
    },
    {
      "inputs": [],
      "name": "migrate",
      "outputs": [],
      "stateMutability": "nonpayable",
      "type": "function"
    },
    {
      "inputs": [],
      "name": "rewardAsset",
      "outputs": [
        {
          "internalType": "contract IERC20",
          "name": "",
          "type": "address"
        }
      ],
      "stateMutability": "view",
      "type": "function"
    },
    {
      "inputs": [
        {
          "internalType": "uint256",
          "name": "amount",
          "type": "uint256"
        }
      ],
      "name": "stake",
      "outputs": [],
      "stateMutability": "nonpayable",
      "type": "function"
    },
    {
      "inputs": [],
      "name": "stakingAsset",
      "outputs": [
        {
          "internalType": "contract IERC20",
          "name": "",
          "type": "address"
        }
      ],
      "stateMutability": "view",
      "type": "function"
    },
    {
      "inputs": [
        {
          "internalType": "uint256",
          "name": "amount",
          "type": "uint256"
        }
      ],
      "name": "withdraw",
      "outputs": [],
      "stateMutability": "nonpayable",
      "type": "function"
    }
  ],
  "transactionHash": "0xd37642c336bc6317e270db5e5674be4fe72c71fb4f5aa3e71c50b7efcd04acf8",
  "args": [
    "0x2e938441D55AAafe923bA282dD8b9C84F130eB29",
    "0xf7fb1651B6B7dE55cf94E4239F4d0f9d63b9a5ce"
  ],
  "solcInputHash": "777aa92d3efb23d018be6ab5022e1ffa",
  "bytecode": "0x608060405234801561001057600080fd5b5060405161139738038061139783398101604081905261002f91610094565b600180546001600160a01b03199081166001600160a01b0394851617909155600280549091169190921617905560008054610100600160a81b03191661010033021790556100c6565b80516001600160a01b038116811461008f57600080fd5b919050565b600080604083850312156100a6578182fd5b6100af83610078565b91506100bd60208401610078565b90509250929050565b6112c2806100d56000396000f3fe608060405234801561001057600080fd5b50600436106100a95760003560e01c80637776768f116100715780637776768f146101a95780638a19c8bc146101bc5780638fd3ab80146101db57806395d4063f146101e3578063a694fc3a146101f6578063be04ffd91461020957600080fd5b80630ac6702a146100ae5780631b3bd527146100de5780632e1a7d4d146101535780633b09d3b5146101685780634255a1c214610196575b600080fd5b6002546100c1906001600160a01b031681565b6040516001600160a01b0390911681526020015b60405180910390f35b6101266100ec36600461102f565b60ff166000908152600360208190526040909120805460018201546002830154938301546004840154600590940154929591949390929091565b604080519687526020870195909552938501929092526060840152608083015260a082015260c0016100d5565b610166610161366004610f9a565b61022a565b005b61017b610176366004611049565b610313565b604080519384526020840192909252908201526060016100d5565b6101666101a4366004610fca565b610366565b6001546100c1906001600160a01b031681565b6000546101c99060ff1681565b60405160ff90911681526020016100d5565b61016661047d565b6101666101f136600461102f565b610487565b610166610204366004610f9a565b6105ba565b61021c61021736600461102f565b610711565b6040519081526020016100d5565b6000805460ff16808252600360205260409091209061024b90829033610733565b600154610262906001600160a01b031633846107d9565b33600090815260088201602052604081208054849290610283908490611197565b925050819055508181600401600082825461029e9190611197565b90915550503360008181526006830160209081526040808320546008860183528184205493548251888152938401919091529082019290925260ff90911660608201527f66ecb22c263001ecfe4aecc5a075cfbc877869d3fab02728b0f8bfb8b08bf6d1906080015b60405180910390a25050565b60ff821660009081526003602090815260408083206001600160a01b038516845260068101835281842054600882019093529083205483928392916103588388610841565b935093509350509250925092565b60005461010090046001600160a01b0316331461039657604051634755657960e01b815260040160405180910390fd5b6000805460ff168152600360205260408120906103b48686866108fe565b905081600301548110156103db5760405163d2b3b7e960e01b815260040160405180910390fd5b600080546103ed9060ff1660016110f1565b60ff81166000908152600360205260408120919250908190610411908b8689610918565b6000805460ff191660ff8716908117909155604080518e815260208101859052908101839052606081019190915291935091507f332ab8cb2abb1a5c0619be13c533c05a84279ef1d2d78814f594f39df59122419060800160405180910390a150505050505050505050565b61048561096d565b565b60ff81166000908152600360205260408120906104a48233610841565b9050806104c457604051632706c9e160e21b815260040160405180910390fd5b6002546104db906001600160a01b031633836107d9565b33600090815260078301602052604080822082905560025490516370a0823160e01b81523060048201526001600160a01b03909116906370a082319060240160206040518083038186803b15801561053257600080fd5b505afa158015610546573d6000803e3d6000fd5b505050506040513d601f19601f8201168201806040525081019061056a9190610fb2565b600054604080518581526020810184905260ff909216828201525191925033917fae4ef7abdb28a08e41e77990def7c7d8d3f4133e8838005bc1a49fe137dbfcfa9181900360600190a250505050565b6000805460ff1680825260036020526040909120906105ec576040516350f7da1560e11b815260040160405180910390fd5b4281600301541080156106025750428160020154115b1561062057604051636a67d54960e01b815260040160405180910390fd5b8161063e576040516315ad0dc760e21b815260040160405180910390fd5b60005461065090829060ff1633610733565b600154610668906001600160a01b0316333085610a15565b336000908152600882016020526040812080548492906106899084906110d9565b92505081905550818160040160008282546106a491906110d9565b90915550503360008181526006830160209081526040808320546008860183528184205493548251888152938401919091529082019290925260ff90911660608201527f9a2358088aa909a8c4d7b59a65c916782d62ee73d14b851be57582ed69e3ccb090608001610307565b60ff8116600090815260036020526040812061072c81610a53565b9392505050565b61073d8382610841565b6001600160a01b038216600090815260078501602052604090205561076183610a53565b6001600160a01b038216600090815260068501602090815260409182902083905560018601839055426005870155600486015482519384529083015260ff84169082015233907f7994e9f3b8680cde12b3d4f603192419ae0154049b1c5cc3157262c90ab4f9239060600160405180910390a2505050565b6040516001600160a01b03831660248201526044810182905261083c90849063a9059cbb60e01b906064015b60408051601f198184030181529190526020810180516001600160e01b03166001600160e01b031990931692909217909152610ae0565b505050565b6001600160a01b0381166000908152600683016020526040812054610868575060006108f8565b6001600160a01b038216600090815260068401602052604081205461088c85610a53565b6108969190611197565b6001600160a01b0384166000908152600886016020526040812054919250633b9aca006108c38484611155565b6108cd9190611116565b6001600160a01b03861660009081526007880160205260409020546108f291906110d9565b93505050505b92915050565b60006109108484846000806000610bb7565b949350505050565b60008061092985633b9aca00611155565b86556002860184905561094260ff84166201518061112a565b6109519062ffffff16856110d9565b6003870181905542600588015560029096015496945050505050565b60008060005b60005460ff908116908216101561083c5760ff8116600090815260036020908152604080832033845260078101909252909120546109b190856110d9565b3360009081526008830160205260409020549094506109d090846110d9565b33600090815260088301602090815260408083208390556006850182528083208390556007909401905291822091909155915080610a0d8161121f565b915050610973565b6040516001600160a01b0380851660248301528316604482015260648101829052610a4d9085906323b872dd60e01b90608401610805565b50505050565b60008082600301544210610a6b578260030154610a6d565b425b90506000836005015482610a819190611197565b600485015490915081610a9957505050506001015490565b80610aa957506000949350505050565b84546000908290610aba9085611155565b610ac49190611116565b9050808660010154610ad691906110d9565b9695505050505050565b6000610b35826040518060400160405280602081526020017f5361666545524332303a206c6f772d6c6576656c2063616c6c206661696c6564815250856001600160a01b0316610d769092919063ffffffff16565b80519091501561083c5780806020019051810190610b539190610f7a565b61083c5760405162461bcd60e51b815260206004820152602a60248201527f5361666545524332303a204552433230206f7065726174696f6e20646964206e6044820152691bdd081cdd58d8d9595960b21b60648201526084015b60405180910390fd5b60006107b25b8761ffff168161ffff161015610c1357610bd681610d85565b15610bf057610be96301e28500836110d9565b9150610c01565b610bfe6301e13380836110d9565b91505b80610c0b816111fd565b915050610bbd565b610c1b610f45565b601f8152610c2889610d85565b15610c3957601d6020820152610c41565b601c60208201525b601f60408201819052601e606083018190526080830182905260a0830181905260c0830182905260e0830182905261010083018190526101208301829052610140830152610160820152600191505b8760ff168261ffff161015610d005780610cab600184611174565b61ffff16600c8110610ccd57634e487b7160e01b600052603260045260246000fd5b6020020151610ce29060ff1662015180611155565b610cec90846110d9565b925081610cf8816111fd565b925050610c90565b610d0b6001886111ae565b610d1b9060ff1662015180611155565b610d2590846110d9565b9250610d3660ff8716610e10611155565b610d4090846110d9565b9250610d5060ff8616603c611155565b610d5a90846110d9565b9250610d6960ff8516846110d9565b9998505050505050505050565b60606109108484600085610de4565b6000610d9260048361123f565b61ffff1615610da357506000919050565b610dae60648361123f565b61ffff1615610dbf57506001919050565b610dcb6101908361123f565b61ffff1615610ddc57506000919050565b506001919050565b606082471015610e455760405162461bcd60e51b815260206004820152602660248201527f416464726573733a20696e73756666696369656e742062616c616e636520666f6044820152651c8818d85b1b60d21b6064820152608401610bae565b843b610e935760405162461bcd60e51b815260206004820152601d60248201527f416464726573733a2063616c6c20746f206e6f6e2d636f6e74726163740000006044820152606401610bae565b600080866001600160a01b03168587604051610eaf919061108a565b60006040518083038185875af1925050503d8060008114610eec576040519150601f19603f3d011682016040523d82523d6000602084013e610ef1565b606091505b5091509150610f01828286610f0c565b979650505050505050565b60608315610f1b57508161072c565b825115610f2b5782518084602001fd5b8160405162461bcd60e51b8152600401610bae91906110a6565b604051806101800160405280600c906020820280368337509192915050565b803560ff81168114610f7557600080fd5b919050565b600060208284031215610f8b578081fd5b8151801515811461072c578182fd5b600060208284031215610fab578081fd5b5035919050565b600060208284031215610fc3578081fd5b5051919050565b600080600080600060a08688031215610fe1578081fd5b85359450602086013561ffff81168114610ff9578182fd5b935061100760408701610f64565b925061101560608701610f64565b915061102360808701610f64565b90509295509295909350565b600060208284031215611040578081fd5b61072c82610f64565b6000806040838503121561105b578182fd5b61106483610f64565b915060208301356001600160a01b038116811461107f578182fd5b809150509250929050565b6000825161109c8184602087016111d1565b9190910192915050565b60208152600082518060208401526110c58160408501602087016111d1565b601f01601f19169190910160400192915050565b600082198211156110ec576110ec611260565b500190565b600060ff821660ff84168060ff0382111561110e5761110e611260565b019392505050565b60008261112557611125611276565b500490565b600062ffffff8083168185168183048111821515161561114c5761114c611260565b02949350505050565b600081600019048311821515161561116f5761116f611260565b500290565b600061ffff8381169083168181101561118f5761118f611260565b039392505050565b6000828210156111a9576111a9611260565b500390565b600060ff821660ff8416808210156111c8576111c8611260565b90039392505050565b60005b838110156111ec5781810151838201526020016111d4565b83811115610a4d5750506000910152565b600061ffff8083168181141561121557611215611260565b6001019392505050565b600060ff821660ff81141561123657611236611260565b60010192915050565b600061ffff8084168061125457611254611276565b92169190910692915050565b634e487b7160e01b600052601160045260246000fd5b634e487b7160e01b600052601260045260246000fdfea2646970667358221220486e865d1fb406c1bc8ea95f7ff7370d6da45acb3adc49673d78d6118e7add6964736f6c63430008040033",
  "devdoc": {
    "kind": "dev",
    "methods": {},
    "version": 1
  },
  "userdoc": {
    "kind": "user",
    "methods": {},
    "version": 1
  },
  "storageLayout": {
    "storage": [
      {
        "astId": 1258,
        "contract": "contracts/StakingPool.sol:StakingPool",
        "label": "currentRound",
        "offset": 0,
        "slot": "0",
        "type": "t_uint8"
      },
      {
        "astId": 1260,
        "contract": "contracts/StakingPool.sol:StakingPool",
        "label": "_admin",
        "offset": 1,
        "slot": "0",
        "type": "t_address"
      },
      {
        "astId": 1263,
        "contract": "contracts/StakingPool.sol:StakingPool",
        "label": "stakingAsset",
        "offset": 0,
        "slot": "1",
        "type": "t_contract(IERC20)623"
      },
      {
        "astId": 1266,
        "contract": "contracts/StakingPool.sol:StakingPool",
        "label": "rewardAsset",
        "offset": 0,
        "slot": "2",
        "type": "t_contract(IERC20)623"
      },
      {
        "astId": 1271,
        "contract": "contracts/StakingPool.sol:StakingPool",
        "label": "_rounds",
        "offset": 0,
        "slot": "3",
        "type": "t_mapping(t_uint8,t_struct(PoolData)1256_storage)"
      }
    ],
    "types": {
      "t_address": {
        "encoding": "inplace",
        "label": "address",
        "numberOfBytes": "20"
      },
      "t_contract(IERC20)623": {
        "encoding": "inplace",
        "label": "contract IERC20",
        "numberOfBytes": "20"
      },
      "t_mapping(t_address,t_uint256)": {
        "encoding": "mapping",
        "key": "t_address",
        "label": "mapping(address => uint256)",
        "numberOfBytes": "32",
        "value": "t_uint256"
      },
      "t_mapping(t_uint8,t_struct(PoolData)1256_storage)": {
        "encoding": "mapping",
        "key": "t_uint8",
        "label": "mapping(uint8 => struct StakingPool.PoolData)",
        "numberOfBytes": "32",
        "value": "t_struct(PoolData)1256_storage"
      },
      "t_struct(PoolData)1256_storage": {
        "encoding": "inplace",
        "label": "struct StakingPool.PoolData",
        "members": [
          {
            "astId": 1233,
            "contract": "contracts/StakingPool.sol:StakingPool",
            "label": "rewardPerSecond",
            "offset": 0,
            "slot": "0",
            "type": "t_uint256"
          },
          {
            "astId": 1235,
            "contract": "contracts/StakingPool.sol:StakingPool",
            "label": "rewardIndex",
            "offset": 0,
            "slot": "1",
            "type": "t_uint256"
          },
          {
            "astId": 1237,
            "contract": "contracts/StakingPool.sol:StakingPool",
            "label": "startTimestamp",
            "offset": 0,
            "slot": "2",
            "type": "t_uint256"
          },
          {
            "astId": 1239,
            "contract": "contracts/StakingPool.sol:StakingPool",
            "label": "endTimestamp",
            "offset": 0,
            "slot": "3",
            "type": "t_uint256"
          },
          {
            "astId": 1241,
            "contract": "contracts/StakingPool.sol:StakingPool",
            "label": "totalPrincipal",
            "offset": 0,
            "slot": "4",
            "type": "t_uint256"
          },
          {
            "astId": 1243,
            "contract": "contracts/StakingPool.sol:StakingPool",
            "label": "lastUpdateTimestamp",
            "offset": 0,
            "slot": "5",
            "type": "t_uint256"
          },
          {
            "astId": 1247,
            "contract": "contracts/StakingPool.sol:StakingPool",
            "label": "userIndex",
            "offset": 0,
            "slot": "6",
            "type": "t_mapping(t_address,t_uint256)"
          },
          {
            "astId": 1251,
            "contract": "contracts/StakingPool.sol:StakingPool",
            "label": "userReward",
            "offset": 0,
            "slot": "7",
            "type": "t_mapping(t_address,t_uint256)"
          },
          {
            "astId": 1255,
            "contract": "contracts/StakingPool.sol:StakingPool",
            "label": "userPrincipal",
            "offset": 0,
            "slot": "8",
            "type": "t_mapping(t_address,t_uint256)"
          }
        ],
        "numberOfBytes": "288"
      },
      "t_uint256": {
        "encoding": "inplace",
        "label": "uint256",
        "numberOfBytes": "32"
      },
      "t_uint8": {
        "encoding": "inplace",
        "label": "uint8",
        "numberOfBytes": "1"
      }
    }
  }
}