{
  "address": "0xAD1C4974E271f15288b97576d96149aaB1Dd40fa",
  "abi": [
    {
      "inputs": [
        {
          "internalType": "address",
          "name": "stakingAsset_",
          "type": "address"
        },
        {
          "internalType": "address",
          "name": "rewardAsset_",
          "type": "address"
        }
      ],
      "stateMutability": "nonpayable",
      "type": "constructor"
    },
    {
      "inputs": [],
      "name": "InvaidAmount",
      "type": "error"
    },
    {
      "inputs": [
        {
          "internalType": "uint256",
          "name": "principal",
          "type": "uint256"
        }
      ],
      "name": "NotEnoughPrincipal",
      "type": "error"
    },
    {
      "inputs": [],
      "name": "NotInRound",
      "type": "error"
    },
    {
      "inputs": [
        {
          "internalType": "uint8",
          "name": "round",
          "type": "uint8"
        },
        {
          "internalType": "uint8",
          "name": "currentRound",
          "type": "uint8"
        }
      ],
      "name": "NotInitiatedRound",
      "type": "error"
    },
    {
      "inputs": [],
      "name": "OnlyAdmin",
      "type": "error"
    },
    {
      "inputs": [],
      "name": "RoundConflicted",
      "type": "error"
    },
    {
      "inputs": [],
      "name": "StakingNotInitiated",
      "type": "error"
    },
    {
      "inputs": [],
      "name": "ZeroPrincipal",
      "type": "error"
    },
    {
      "inputs": [],
      "name": "ZeroReward",
      "type": "error"
    },
    {
      "anonymous": false,
      "inputs": [
        {
          "indexed": true,
          "internalType": "address",
          "name": "user",
          "type": "address"
        },
        {
          "indexed": false,
          "internalType": "uint256",
          "name": "reward",
          "type": "uint256"
        },
        {
          "indexed": false,
          "internalType": "uint256",
          "name": "rewardLeft",
          "type": "uint256"
        },
        {
          "indexed": false,
          "internalType": "uint8",
          "name": "currentRound",
          "type": "uint8"
        }
      ],
      "name": "Claim",
      "type": "event"
    },
    {
      "anonymous": false,
      "inputs": [
        {
          "indexed": false,
          "internalType": "uint256",
          "name": "rewardPerSecond",
          "type": "uint256"
        },
        {
          "indexed": false,
          "internalType": "uint256",
          "name": "startTimestamp",
          "type": "uint256"
        },
        {
          "indexed": false,
          "internalType": "uint256",
          "name": "endTimestamp",
          "type": "uint256"
        },
        {
          "indexed": false,
          "internalType": "uint256",
          "name": "currentRound",
          "type": "uint256"
        }
      ],
      "name": "InitRound",
      "type": "event"
    },
    {
      "anonymous": false,
      "inputs": [
        {
          "indexed": false,
          "internalType": "address",
          "name": "user",
          "type": "address"
        },
        {
          "indexed": false,
          "internalType": "uint256",
          "name": "amount",
          "type": "uint256"
        },
        {
          "indexed": false,
          "internalType": "uint8",
          "name": "migrateRound",
          "type": "uint8"
        },
        {
          "indexed": false,
          "internalType": "uint8",
          "name": "currentRound",
          "type": "uint8"
        }
      ],
      "name": "Migrate",
      "type": "event"
    },
    {
      "anonymous": false,
      "inputs": [
        {
          "indexed": true,
          "internalType": "address",
          "name": "user",
          "type": "address"
        },
        {
          "indexed": false,
          "internalType": "uint256",
          "name": "amount",
          "type": "uint256"
        },
        {
          "indexed": false,
          "internalType": "uint256",
          "name": "userIndex",
          "type": "uint256"
        },
        {
          "indexed": false,
          "internalType": "uint256",
          "name": "userPrincipal",
          "type": "uint256"
        },
        {
          "indexed": false,
          "internalType": "uint8",
          "name": "currentRound",
          "type": "uint8"
        }
      ],
      "name": "Stake",
      "type": "event"
    },
    {
      "anonymous": false,
      "inputs": [
        {
          "indexed": true,
          "internalType": "address",
          "name": "user",
          "type": "address"
        },
        {
          "indexed": false,
          "internalType": "uint256",
          "name": "amount",
          "type": "uint256"
        },
        {
          "indexed": false,
          "internalType": "uint256",
          "name": "userIndex",
          "type": "uint256"
        },
        {
          "indexed": false,
          "internalType": "uint256",
          "name": "userPrincipal",
          "type": "uint256"
        },
        {
          "indexed": false,
          "internalType": "uint8",
          "name": "currentRound",
          "type": "uint8"
        }
      ],
      "name": "Withdraw",
      "type": "event"
    },
    {
      "inputs": [
        {
          "internalType": "uint8",
          "name": "round",
          "type": "uint8"
        }
      ],
      "name": "claim",
      "outputs": [],
      "stateMutability": "nonpayable",
      "type": "function"
    },
    {
      "inputs": [],
      "name": "currentRound",
      "outputs": [
        {
          "internalType": "uint8",
          "name": "",
          "type": "uint8"
        }
      ],
      "stateMutability": "view",
      "type": "function"
    },
    {
      "inputs": [
        {
          "internalType": "uint8",
          "name": "round",
          "type": "uint8"
        }
      ],
      "name": "getPoolData",
      "outputs": [
        {
          "internalType": "uint256",
          "name": "rewardPerSecond",
          "type": "uint256"
        },
        {
          "internalType": "uint256",
          "name": "rewardIndex",
          "type": "uint256"
        },
        {
          "internalType": "uint256",
          "name": "startTimestamp",
          "type": "uint256"
        },
        {
          "internalType": "uint256",
          "name": "endTimestamp",
          "type": "uint256"
        },
        {
          "internalType": "uint256",
          "name": "totalPrincipal",
          "type": "uint256"
        },
        {
          "internalType": "uint256",
          "name": "lastUpdateTimestamp",
          "type": "uint256"
        }
      ],
      "stateMutability": "view",
      "type": "function"
    },
    {
      "inputs": [
        {
          "internalType": "uint8",
          "name": "round",
          "type": "uint8"
        }
      ],
      "name": "getRewardIndex",
      "outputs": [
        {
          "internalType": "uint256",
          "name": "",
          "type": "uint256"
        }
      ],
      "stateMutability": "view",
      "type": "function"
    },
    {
      "inputs": [
        {
          "internalType": "uint8",
          "name": "round",
          "type": "uint8"
        },
        {
          "internalType": "address",
          "name": "user",
          "type": "address"
        }
      ],
      "name": "getUserData",
      "outputs": [
        {
          "internalType": "uint256",
          "name": "userIndex",
          "type": "uint256"
        },
        {
          "internalType": "uint256",
          "name": "userReward",
          "type": "uint256"
        },
        {
          "internalType": "uint256",
          "name": "userPrincipal",
          "type": "uint256"
        }
      ],
      "stateMutability": "view",
      "type": "function"
    },
    {
      "inputs": [
        {
          "internalType": "address",
          "name": "user",
          "type": "address"
        },
        {
          "internalType": "uint8",
          "name": "round",
          "type": "uint8"
        }
      ],
      "name": "getUserReward",
      "outputs": [
        {
          "internalType": "uint256",
          "name": "",
          "type": "uint256"
        }
      ],
      "stateMutability": "view",
      "type": "function"
    },
    {
      "inputs": [
        {
          "internalType": "uint256",
          "name": "rewardPerSecond",
          "type": "uint256"
        },
        {
          "internalType": "uint16",
          "name": "year",
          "type": "uint16"
        },
        {
          "internalType": "uint8",
          "name": "month",
          "type": "uint8"
        },
        {
          "internalType": "uint8",
          "name": "day",
          "type": "uint8"
        },
        {
          "internalType": "uint8",
          "name": "duration",
          "type": "uint8"
        }
      ],
      "name": "initNewRound",
      "outputs": [],
      "stateMutability": "nonpayable",
      "type": "function"
    },
    {
      "inputs": [
        {
          "internalType": "uint256",
          "name": "amount",
          "type": "uint256"
        },
        {
          "internalType": "uint8",
          "name": "round",
          "type": "uint8"
        }
      ],
      "name": "migrate",
      "outputs": [],
      "stateMutability": "nonpayable",
      "type": "function"
    },
    {
      "inputs": [],
      "name": "rewardAsset",
      "outputs": [
        {
          "internalType": "contract IERC20",
          "name": "",
          "type": "address"
        }
      ],
      "stateMutability": "view",
      "type": "function"
    },
    {
      "inputs": [
        {
          "internalType": "uint256",
          "name": "amount",
          "type": "uint256"
        }
      ],
      "name": "stake",
      "outputs": [],
      "stateMutability": "nonpayable",
      "type": "function"
    },
    {
      "inputs": [],
      "name": "stakingAsset",
      "outputs": [
        {
          "internalType": "contract IERC20",
          "name": "",
          "type": "address"
        }
      ],
      "stateMutability": "view",
      "type": "function"
    },
    {
      "inputs": [
        {
          "internalType": "uint256",
          "name": "amount",
          "type": "uint256"
        },
        {
          "internalType": "uint8",
          "name": "round",
          "type": "uint8"
        }
      ],
      "name": "withdraw",
      "outputs": [],
      "stateMutability": "nonpayable",
      "type": "function"
    }
  ],
  "transactionHash": "0x8a30a6a24c38cb1ec21529f4cb9e735dc778d6179be0c2135ca430158a46796c",
  "args": [
    "0x2e938441D55AAafe923bA282dD8b9C84F130eB29",
    "0xf7fb1651B6B7dE55cf94E4239F4d0f9d63b9a5ce"
  ],
  "solcInputHash": "e2eb00e80c29c81a3997f795b25426e1",
  "bytecode": "0x60806040523480156200001157600080fd5b5060405162001a6838038062001a6883398101604081905262000034916200009b565b600180546001600160a01b03199081166001600160a01b0394851617909155600280549091169190921617905560008054610100600160a81b0319166101003302179055620000d2565b80516001600160a01b03811681146200009657600080fd5b919050565b60008060408385031215620000ae578182fd5b620000b9836200007e565b9150620000c9602084016200007e565b90509250929050565b61198680620000e26000396000f3fe608060405234801561001057600080fd5b50600436106100b45760003560e01c80638a19c8bc116100715780638a19c8bc14610218578063903d42961461023757806395d4063f1461024a578063a694fc3a1461025d578063be04ffd914610270578063edab62f51461028357600080fd5b80630ac6702a146100b95780631b3bd527146100e95780633b09d3b51461015e5780634255a1c2146101cf5780634574ecff146101e45780637776768f14610205575b600080fd5b6002546100cc906001600160a01b031681565b6040516001600160a01b0390911681526020015b60405180910390f35b6101316100f7366004611683565b60ff166000908152600360208190526040909120805460018201546002830154938301546004840154600590940154929591949390929091565b604080519687526020870195909552938501929092526060840152608083015260a082015260c0016100e0565b6101b461016c36600461169d565b60ff9190911660009081526003602090815260408083206001600160a01b03909416835260068401825280832054600785018352818420546008909501909252909120549092565b604080519384526020840192909252908201526060016100e0565b6101e26101dd3660046115fc565b610296565b005b6101f76101f236600461157a565b6103ad565b6040519081526020016100e0565b6001546100cc906001600160a01b031681565b6000546102259060ff1681565b60405160ff90911681526020016100e0565b6101e2610245366004611661565b6103d3565b6101e2610258366004611683565b6103e1565b6101e261026b3660046115cc565b6103ee565b6101f761027e366004611683565b61054b565b6101e2610291366004611661565b61056d565b60005461010090046001600160a01b031633146102c657604051634755657960e01b815260040160405180910390fd5b6000805460ff168152600360205260408120906102e4868686610787565b9050816003015481101561030b5760405163d2b3b7e960e01b815260040160405180910390fd5b6000805461031d9060ff1660016117af565b60ff81166000908152600360205260408120919250908190610341908b86896107a1565b6000805460ff191660ff8716908117909155604080518e815260208101859052908101839052606081019190915291935091507f332ab8cb2abb1a5c0619be13c533c05a84279ef1d2d78814f594f39df59122419060800160405180910390a150505050505050505050565b60ff811660009081526003602052604081206103c981856107f8565b9150505b92915050565b6103dd828261093b565b5050565b6103eb3382610abf565b50565b6000805460ff168082526003602052604090912090610420576040516350f7da1560e11b815260040160405180910390fd5b42816003015410806104355750428160020154115b1561045357604051636a67d54960e01b815260040160405180910390fd5b81610471576040516315ad0dc760e21b815260040160405180910390fd5b60005461048390829060ff1633610ca1565b60015461049b906001600160a01b0316333085610e4d565b336000908152600882016020526040812080548492906104bc908490611797565b92505081905550818160040160008282546104d79190611797565b90915550503360008181526006830160209081526040808320546008860183528184205493548251888152938401919091529082019290925260ff90911660608201527f9a2358088aa909a8c4d7b59a65c916782d62ee73d14b851be57582ed69e3ccb09060800160405180910390a25050565b60ff8116600090815260036020526040812061056681610ebe565b9392505050565b60005460ff908116908216106105ac576000546040516365d621ed60e01b815260ff808416600483015290911660248201526044015b60405180910390fd5b60ff811660009081526003602090815260408083203384526008810190925290912054806105ed57604051630b3eb09f60e21b815260040160405180910390fd5b60006105f98583611855565b905061060583336107f8565b15610614576106143385610abf565b801561062457610624818561093b565b6000805460ff16808252600360205260409091209061064590829033610ca1565b33600090815260088501602052604081208054889290610666908490611855565b90915550503360009081526008820160205260408120805488929061068c908490611797565b92505081905550858460040160008282546106a79190611855565b92505081905550858160040160008282546106c29190611797565b909155505033600081815260068301602090815260408083205460088601835281842054935482518c8152938401919091529082019290925260ff90911660608201527f9a2358088aa909a8c4d7b59a65c916782d62ee73d14b851be57582ed69e3ccb09060800160405180910390a2600054604080513381526020810189905260ff888116828401529092166060830152517f546af5173ec580ce2f8eb21d6efbe16430d69c880c6d83a5f455b9f4022843ad9181900360800190a1505050505050565b60006107998484846000806000610fc5565b949350505050565b828455600284018290556000806107be60ff8416620151806117e8565b6107cd9062ffffff1685611797565b6003870181905560058701949094555050670de0b6b3a7640000600185015550600290920154929050565b6001600160a01b038116600090815260068301602052604081205461084e576108466040518060400160405280600e81526020016d06765745265776172642073746f760941b815250611184565b5060006103cd565b6001600160a01b038216600090815260068401602052604081205461087285610ebe565b61087c9190611855565b6001600160a01b0384166000908152600886016020526040812054919250633b9aca006108a98484611813565b6108b391906117d4565b6001600160a01b03861660009081526007880160205260409020546108d89190611797565b90506109326040518060400160405280600981526020016819d95d14995dd85c9960ba1b81525061090888610ebe565b6001600160a01b038816600090815260068a01602052604090205461092d8787611813565b6111c7565b95945050505050565b60ff808216600081815260036020526040812090549092161015610983576000546040516365d621ed60e01b815260ff808516600483015290911660248201526044016105a3565b826000198114156109a257503360009081526008820160205260409020545b3360009081526008830160205260409020548111156109eb573360009081526008830160205260409081902054905163cebd519360e01b815260048101919091526024016105a3565b6109f6828433610ca1565b33600090815260088301602052604081208054839290610a17908490611855565b9250508190555080826004016000828254610a329190611855565b9091555050600154610a4e906001600160a01b03163383611210565b3360008181526006840160209081526040808320546008870183528184205493548251878152938401919091529082019290925260ff90911660608201527f66ecb22c263001ecfe4aecc5a075cfbc877869d3fab02728b0f8bfb8b08bf6d19060800160405180910390a250505050565b60005460ff9081169082161115610afa576000546040516365d621ed60e01b815260ff808416600483015290911660248201526044016105a3565b60ff8116600090815260036020526040812090610b1782856107f8565b905080610b3757604051632706c9e160e21b815260040160405180910390fd5b610b7c60405180606001604052806026815260200161192b602691396001600160a01b0386166000908152600685016020526040902054610b7785610ebe565b611245565b6001600160a01b0384166000908152600783016020526040812055610ba082610ebe565b6001600160a01b038086166000908152600685016020526040902091909155600254610bce91168583611210565b6002546040516370a0823160e01b81523060048201526000916001600160a01b0316906370a082319060240160206040518083038186803b158015610c1257600080fd5b505afa158015610c26573d6000803e3d6000fd5b505050506040513d601f19601f82011682018060405250810190610c4a91906115e4565b604080518481526020810183905260ff87168183015290519192506001600160a01b038716917fae4ef7abdb28a08e41e77990def7c7d8d3f4133e8838005bc1a49fe137dbfcfa9181900360600190a25050505050565b610cdf6040518060400160405280601781526020017f7570646174655374616b696e67506f6f6c207374617274000000000000000000815250611184565b610ce983826107f8565b6001600160a01b038216600081815260078601602081815260408084208690558051808201909152600381526231323360e81b81830152939092529052610d2f9161128c565b610d3883610ebe565b6001600160a01b038216600090815260068501602090815260409182902083905560018601839055815180830190925260038252621a1a9b60e91b90820152610d809161128c565b82600301544210610d95578260030154610d97565b425b6005840155604080518082018252601e81527f636f6e747261637420757064617465706f6f6c207573657252657761726400006020808301919091526001600160a01b0384166000908152600787019091529190912054610df8919061128c565b6001830154600484015460408051928352602083019190915260ff84169082015233907f7994e9f3b8680cde12b3d4f603192419ae0154049b1c5cc3157262c90ab4f9239060600160405180910390a2505050565b6040516001600160a01b0380851660248301528316604482015260648101829052610eb89085906323b872dd60e01b906084015b60408051601f198184030181529190526020810180516001600160e01b03166001600160e01b0319909316929092179091526112d1565b50505050565b60008082600301544210610ed6578260030154610ed8565b425b90506000836005015482610eec9190611855565b9050600084600401549050610f306040518060400160405280600d81526020016c676574496e6465782054696d6560981b81525086600101548588600501546111c7565b81610f4057505050506001015490565b80610f5057505050506001015490565b84546000908290610f619085611813565b610f6f90633b9aca00611813565b610f7991906117d4565b9050610fab604051806040016040528060088152602001670cecae892dcc8caf60c31b815250876001015484846111c7565b808660010154610fbb9190611797565b9695505050505050565b60006107b25b8761ffff168161ffff16101561102157610fe4816113a3565b15610ffe57610ff76301e2850083611797565b915061100f565b61100c6301e1338083611797565b91505b80611019816118bb565b915050610fcb565b61102961152e565b601f8152611036896113a3565b1561104757601d602082015261104f565b601c60208201525b601f60408201819052601e606083018190526080830182905260a0830181905260c0830182905260e0830182905261010083018190526101208301829052610140830152610160820152600191505b8760ff168261ffff16101561110e57806110b9600184611832565b61ffff16600c81106110db57634e487b7160e01b600052603260045260246000fd5b60200201516110f09060ff1662015180611813565b6110fa9084611797565b925081611106816118bb565b92505061109e565b61111960018861186c565b6111299060ff1662015180611813565b6111339084611797565b925061114460ff8716610e10611813565b61114e9084611797565b925061115e60ff8616603c611813565b6111689084611797565b925061117760ff851684611797565b9998505050505050505050565b6103eb81604051602401611198919061170e565b60408051601f198184030181529190526020810180516001600160e01b031663104c13eb60e21b179052611402565b610eb8848484846040516024016111e19493929190611768565b60408051601f198184030181529190526020810180516001600160e01b03166304772b3360e11b179052611402565b6040516001600160a01b03831660248201526044810182905261124090849063a9059cbb60e01b90606401610e81565b505050565b61124083838360405160240161125d93929190611743565b60408051601f198184030181529190526020810180516001600160e01b031663969cdd0360e01b179052611402565b6103dd82826040516024016112a2929190611721565b60408051601f198184030181529190526020810180516001600160e01b03166309710a9d60e41b179052611402565b6000611326826040518060400160405280602081526020017f5361666545524332303a206c6f772d6c6576656c2063616c6c206661696c6564815250856001600160a01b03166114239092919063ffffffff16565b805190915015611240578080602001905181019061134491906115ac565b6112405760405162461bcd60e51b815260206004820152602a60248201527f5361666545524332303a204552433230206f7065726174696f6e20646964206e6044820152691bdd081cdd58d8d9595960b21b60648201526084016105a3565b60006113b06004836118dd565b61ffff16156113c157506000919050565b6113cc6064836118dd565b61ffff16156113dd57506001919050565b6113e9610190836118dd565b61ffff16156113fa57506000919050565b506001919050565b80516a636f6e736f6c652e6c6f67602083016000808483855afa5050505050565b6060610799848460008585843b61147c5760405162461bcd60e51b815260206004820152601d60248201527f416464726573733a2063616c6c20746f206e6f6e2d636f6e747261637400000060448201526064016105a3565b600080866001600160a01b0316858760405161149891906116f2565b60006040518083038185875af1925050503d80600081146114d5576040519150601f19603f3d011682016040523d82523d6000602084013e6114da565b606091505b50915091506114ea8282866114f5565b979650505050505050565b60608315611504575081610566565b8251156115145782518084602001fd5b8160405162461bcd60e51b81526004016105a3919061170e565b604051806101800160405280600c906020820280368337509192915050565b80356001600160a01b038116811461156457600080fd5b919050565b803560ff8116811461156457600080fd5b6000806040838503121561158c578182fd5b6115958361154d565b91506115a360208401611569565b90509250929050565b6000602082840312156115bd578081fd5b81518015158114610566578182fd5b6000602082840312156115dd578081fd5b5035919050565b6000602082840312156115f5578081fd5b5051919050565b600080600080600060a08688031215611613578081fd5b85359450602086013561ffff8116811461162b578182fd5b935061163960408701611569565b925061164760608701611569565b915061165560808701611569565b90509295509295909350565b60008060408385031215611673578182fd5b823591506115a360208401611569565b600060208284031215611694578081fd5b61056682611569565b600080604083850312156116af578182fd5b6116b883611569565b91506115a36020840161154d565b600081518084526116de81602086016020860161188f565b601f01601f19169290920160200192915050565b6000825161170481846020870161188f565b9190910192915050565b60208152600061056660208301846116c6565b60408152600061173460408301856116c6565b90508260208301529392505050565b60608152600061175660608301866116c6565b60208301949094525060400152919050565b60808152600061177b60808301876116c6565b6020830195909552506040810192909252606090910152919050565b600082198211156117aa576117aa6118fe565b500190565b600060ff821660ff84168060ff038211156117cc576117cc6118fe565b019392505050565b6000826117e3576117e3611914565b500490565b600062ffffff8083168185168183048111821515161561180a5761180a6118fe565b02949350505050565b600081600019048311821515161561182d5761182d6118fe565b500290565b600061ffff8381169083168181101561184d5761184d6118fe565b039392505050565b600082821015611867576118676118fe565b500390565b600060ff821660ff841680821015611886576118866118fe565b90039392505050565b60005b838110156118aa578181015183820152602001611892565b83811115610eb85750506000910152565b600061ffff808316818114156118d3576118d36118fe565b6001019392505050565b600061ffff808416806118f2576118f2611914565b92169190910692915050565b634e487b7160e01b600052601160045260246000fd5b634e487b7160e01b600052601260045260246000fdfe636f6e74726163742055736572496e646578207570646174654265666f72652c206166746572a2646970667358221220063d90e4fb1a7a8ce4747ad224dab1c24ba79584e1c523db14c60b87a120aa9664736f6c63430008040033",
  "devdoc": {
    "kind": "dev",
    "methods": {},
    "version": 1
  },
  "userdoc": {
    "kind": "user",
    "methods": {},
    "version": 1
  },
  "storageLayout": {
    "storage": [
      {
        "astId": 1259,
        "contract": "contracts/StakingPool.sol:StakingPool",
        "label": "currentRound",
        "offset": 0,
        "slot": "0",
        "type": "t_uint8"
      },
      {
        "astId": 1261,
        "contract": "contracts/StakingPool.sol:StakingPool",
        "label": "_admin",
        "offset": 1,
        "slot": "0",
        "type": "t_address"
      },
      {
        "astId": 1264,
        "contract": "contracts/StakingPool.sol:StakingPool",
        "label": "stakingAsset",
        "offset": 0,
        "slot": "1",
        "type": "t_contract(IERC20)623"
      },
      {
        "astId": 1267,
        "contract": "contracts/StakingPool.sol:StakingPool",
        "label": "rewardAsset",
        "offset": 0,
        "slot": "2",
        "type": "t_contract(IERC20)623"
      },
      {
        "astId": 1272,
        "contract": "contracts/StakingPool.sol:StakingPool",
        "label": "_rounds",
        "offset": 0,
        "slot": "3",
        "type": "t_mapping(t_uint8,t_struct(PoolData)1257_storage)"
      }
    ],
    "types": {
      "t_address": {
        "encoding": "inplace",
        "label": "address",
        "numberOfBytes": "20"
      },
      "t_contract(IERC20)623": {
        "encoding": "inplace",
        "label": "contract IERC20",
        "numberOfBytes": "20"
      },
      "t_mapping(t_address,t_uint256)": {
        "encoding": "mapping",
        "key": "t_address",
        "label": "mapping(address => uint256)",
        "numberOfBytes": "32",
        "value": "t_uint256"
      },
      "t_mapping(t_uint8,t_struct(PoolData)1257_storage)": {
        "encoding": "mapping",
        "key": "t_uint8",
        "label": "mapping(uint8 => struct StakingPool.PoolData)",
        "numberOfBytes": "32",
        "value": "t_struct(PoolData)1257_storage"
      },
      "t_struct(PoolData)1257_storage": {
        "encoding": "inplace",
        "label": "struct StakingPool.PoolData",
        "members": [
          {
            "astId": 1234,
            "contract": "contracts/StakingPool.sol:StakingPool",
            "label": "rewardPerSecond",
            "offset": 0,
            "slot": "0",
            "type": "t_uint256"
          },
          {
            "astId": 1236,
            "contract": "contracts/StakingPool.sol:StakingPool",
            "label": "rewardIndex",
            "offset": 0,
            "slot": "1",
            "type": "t_uint256"
          },
          {
            "astId": 1238,
            "contract": "contracts/StakingPool.sol:StakingPool",
            "label": "startTimestamp",
            "offset": 0,
            "slot": "2",
            "type": "t_uint256"
          },
          {
            "astId": 1240,
            "contract": "contracts/StakingPool.sol:StakingPool",
            "label": "endTimestamp",
            "offset": 0,
            "slot": "3",
            "type": "t_uint256"
          },
          {
            "astId": 1242,
            "contract": "contracts/StakingPool.sol:StakingPool",
            "label": "totalPrincipal",
            "offset": 0,
            "slot": "4",
            "type": "t_uint256"
          },
          {
            "astId": 1244,
            "contract": "contracts/StakingPool.sol:StakingPool",
            "label": "lastUpdateTimestamp",
            "offset": 0,
            "slot": "5",
            "type": "t_uint256"
          },
          {
            "astId": 1248,
            "contract": "contracts/StakingPool.sol:StakingPool",
            "label": "userIndex",
            "offset": 0,
            "slot": "6",
            "type": "t_mapping(t_address,t_uint256)"
          },
          {
            "astId": 1252,
            "contract": "contracts/StakingPool.sol:StakingPool",
            "label": "userReward",
            "offset": 0,
            "slot": "7",
            "type": "t_mapping(t_address,t_uint256)"
          },
          {
            "astId": 1256,
            "contract": "contracts/StakingPool.sol:StakingPool",
            "label": "userPrincipal",
            "offset": 0,
            "slot": "8",
            "type": "t_mapping(t_address,t_uint256)"
          }
        ],
        "numberOfBytes": "288"
      },
      "t_uint256": {
        "encoding": "inplace",
        "label": "uint256",
        "numberOfBytes": "32"
      },
      "t_uint8": {
        "encoding": "inplace",
        "label": "uint8",
        "numberOfBytes": "1"
      }
    }
  }
}