{
  "address": "0xbb7b7fD236e6Dc080FB16fAdF953f7B90345eF04",
  "abi": [
    {
      "inputs": [
        {
          "internalType": "address",
          "name": "stakingAsset_",
          "type": "address"
        },
        {
          "internalType": "address",
          "name": "rewardAsset_",
          "type": "address"
        }
      ],
      "stateMutability": "nonpayable",
      "type": "constructor"
    },
    {
      "inputs": [],
      "name": "InvaidAmount",
      "type": "error"
    },
    {
      "inputs": [
        {
          "internalType": "uint256",
          "name": "principal",
          "type": "uint256"
        }
      ],
      "name": "NotEnoughPrincipal",
      "type": "error"
    },
    {
      "inputs": [],
      "name": "NotInRound",
      "type": "error"
    },
    {
      "inputs": [
        {
          "internalType": "uint8",
          "name": "round",
          "type": "uint8"
        },
        {
          "internalType": "uint8",
          "name": "currentRound",
          "type": "uint8"
        }
      ],
      "name": "NotInitiatedRound",
      "type": "error"
    },
    {
      "inputs": [],
      "name": "OnlyAdmin",
      "type": "error"
    },
    {
      "inputs": [],
      "name": "RoundConflicted",
      "type": "error"
    },
    {
      "inputs": [],
      "name": "StakingNotInitiated",
      "type": "error"
    },
    {
      "inputs": [],
      "name": "ZeroReward",
      "type": "error"
    },
    {
      "anonymous": false,
      "inputs": [
        {
          "indexed": true,
          "internalType": "address",
          "name": "user",
          "type": "address"
        },
        {
          "indexed": false,
          "internalType": "uint256",
          "name": "reward",
          "type": "uint256"
        },
        {
          "indexed": false,
          "internalType": "uint256",
          "name": "rewardLeft",
          "type": "uint256"
        },
        {
          "indexed": false,
          "internalType": "uint8",
          "name": "currentRound",
          "type": "uint8"
        }
      ],
      "name": "Claim",
      "type": "event"
    },
    {
      "anonymous": false,
      "inputs": [
        {
          "indexed": false,
          "internalType": "uint256",
          "name": "rewardPerSecond",
          "type": "uint256"
        },
        {
          "indexed": false,
          "internalType": "uint256",
          "name": "startTimestamp",
          "type": "uint256"
        },
        {
          "indexed": false,
          "internalType": "uint256",
          "name": "endTimestamp",
          "type": "uint256"
        },
        {
          "indexed": false,
          "internalType": "uint256",
          "name": "currentRound",
          "type": "uint256"
        }
      ],
      "name": "InitRound",
      "type": "event"
    },
    {
      "anonymous": false,
      "inputs": [
        {
          "indexed": false,
          "internalType": "address",
          "name": "user",
          "type": "address"
        },
        {
          "indexed": false,
          "internalType": "uint256",
          "name": "amount",
          "type": "uint256"
        },
        {
          "indexed": false,
          "internalType": "uint8",
          "name": "migrateRound",
          "type": "uint8"
        },
        {
          "indexed": false,
          "internalType": "uint8",
          "name": "currentRound",
          "type": "uint8"
        }
      ],
      "name": "Migrate",
      "type": "event"
    },
    {
      "anonymous": false,
      "inputs": [
        {
          "indexed": true,
          "internalType": "address",
          "name": "user",
          "type": "address"
        },
        {
          "indexed": false,
          "internalType": "uint256",
          "name": "amount",
          "type": "uint256"
        },
        {
          "indexed": false,
          "internalType": "uint256",
          "name": "userIndex",
          "type": "uint256"
        },
        {
          "indexed": false,
          "internalType": "uint256",
          "name": "userPrincipal",
          "type": "uint256"
        },
        {
          "indexed": false,
          "internalType": "uint8",
          "name": "currentRound",
          "type": "uint8"
        }
      ],
      "name": "Stake",
      "type": "event"
    },
    {
      "anonymous": false,
      "inputs": [
        {
          "indexed": true,
          "internalType": "address",
          "name": "user",
          "type": "address"
        },
        {
          "indexed": false,
          "internalType": "uint256",
          "name": "amount",
          "type": "uint256"
        },
        {
          "indexed": false,
          "internalType": "uint256",
          "name": "userIndex",
          "type": "uint256"
        },
        {
          "indexed": false,
          "internalType": "uint256",
          "name": "userPrincipal",
          "type": "uint256"
        },
        {
          "indexed": false,
          "internalType": "uint8",
          "name": "currentRound",
          "type": "uint8"
        }
      ],
      "name": "Withdraw",
      "type": "event"
    },
    {
      "inputs": [
        {
          "internalType": "uint8",
          "name": "round",
          "type": "uint8"
        }
      ],
      "name": "claim",
      "outputs": [],
      "stateMutability": "nonpayable",
      "type": "function"
    },
    {
      "inputs": [],
      "name": "currentRound",
      "outputs": [
        {
          "internalType": "uint8",
          "name": "",
          "type": "uint8"
        }
      ],
      "stateMutability": "view",
      "type": "function"
    },
    {
      "inputs": [
        {
          "internalType": "uint8",
          "name": "round",
          "type": "uint8"
        }
      ],
      "name": "getPoolData",
      "outputs": [
        {
          "internalType": "uint256",
          "name": "rewardPerSecond",
          "type": "uint256"
        },
        {
          "internalType": "uint256",
          "name": "rewardIndex",
          "type": "uint256"
        },
        {
          "internalType": "uint256",
          "name": "startTimestamp",
          "type": "uint256"
        },
        {
          "internalType": "uint256",
          "name": "endTimestamp",
          "type": "uint256"
        },
        {
          "internalType": "uint256",
          "name": "totalPrincipal",
          "type": "uint256"
        },
        {
          "internalType": "uint256",
          "name": "lastUpdateTimestamp",
          "type": "uint256"
        }
      ],
      "stateMutability": "view",
      "type": "function"
    },
    {
      "inputs": [
        {
          "internalType": "uint8",
          "name": "round",
          "type": "uint8"
        }
      ],
      "name": "getRewardIndex",
      "outputs": [
        {
          "internalType": "uint256",
          "name": "",
          "type": "uint256"
        }
      ],
      "stateMutability": "view",
      "type": "function"
    },
    {
      "inputs": [
        {
          "internalType": "uint8",
          "name": "round",
          "type": "uint8"
        },
        {
          "internalType": "address",
          "name": "user",
          "type": "address"
        }
      ],
      "name": "getUserData",
      "outputs": [
        {
          "internalType": "uint256",
          "name": "userIndex",
          "type": "uint256"
        },
        {
          "internalType": "uint256",
          "name": "userReward",
          "type": "uint256"
        },
        {
          "internalType": "uint256",
          "name": "userPrincipal",
          "type": "uint256"
        }
      ],
      "stateMutability": "view",
      "type": "function"
    },
    {
      "inputs": [
        {
          "internalType": "address",
          "name": "user",
          "type": "address"
        },
        {
          "internalType": "uint8",
          "name": "round",
          "type": "uint8"
        }
      ],
      "name": "getUserReward",
      "outputs": [
        {
          "internalType": "uint256",
          "name": "",
          "type": "uint256"
        }
      ],
      "stateMutability": "view",
      "type": "function"
    },
    {
      "inputs": [
        {
          "internalType": "uint256",
          "name": "rewardPerSecond",
          "type": "uint256"
        },
        {
          "internalType": "uint16",
          "name": "year",
          "type": "uint16"
        },
        {
          "internalType": "uint8",
          "name": "month",
          "type": "uint8"
        },
        {
          "internalType": "uint8",
          "name": "day",
          "type": "uint8"
        },
        {
          "internalType": "uint8",
          "name": "duration",
          "type": "uint8"
        }
      ],
      "name": "initNewRound",
      "outputs": [],
      "stateMutability": "nonpayable",
      "type": "function"
    },
    {
      "inputs": [
        {
          "internalType": "uint256",
          "name": "amount",
          "type": "uint256"
        },
        {
          "internalType": "uint8",
          "name": "round",
          "type": "uint8"
        }
      ],
      "name": "migrate",
      "outputs": [],
      "stateMutability": "nonpayable",
      "type": "function"
    },
    {
      "inputs": [],
      "name": "rewardAsset",
      "outputs": [
        {
          "internalType": "contract IERC20",
          "name": "",
          "type": "address"
        }
      ],
      "stateMutability": "view",
      "type": "function"
    },
    {
      "inputs": [
        {
          "internalType": "uint256",
          "name": "amount",
          "type": "uint256"
        }
      ],
      "name": "stake",
      "outputs": [],
      "stateMutability": "nonpayable",
      "type": "function"
    },
    {
      "inputs": [],
      "name": "stakingAsset",
      "outputs": [
        {
          "internalType": "contract IERC20",
          "name": "",
          "type": "address"
        }
      ],
      "stateMutability": "view",
      "type": "function"
    },
    {
      "inputs": [
        {
          "internalType": "uint256",
          "name": "amount",
          "type": "uint256"
        },
        {
          "internalType": "uint8",
          "name": "round",
          "type": "uint8"
        }
      ],
      "name": "withdraw",
      "outputs": [],
      "stateMutability": "nonpayable",
      "type": "function"
    }
  ],
  "transactionHash": "0xd84522ee8c0d5a809c90fde2e67e40902271c8163cb6d361c8ba7ba1a41763ed",
  "args": [
    "0x8b2d59736d03F0Fee0480226A4FFa4272C931A68",
    "0xE770e88594eb6EeDC6Feb0D6BC1f086BFc3EdAA8"
  ],
  "solcInputHash": "f8dd1c5f8040c2cbb041978bbbca535e",
  "bytecode": "0x60806040523480156200001157600080fd5b5060405162001a1b38038062001a1b83398101604081905262000034916200009b565b600180546001600160a01b03199081166001600160a01b0394851617909155600280549091169190921617905560008054610100600160a81b0319166101003302179055620000d2565b80516001600160a01b03811681146200009657600080fd5b919050565b60008060408385031215620000ae578182fd5b620000b9836200007e565b9150620000c9602084016200007e565b90509250929050565b61193980620000e26000396000f3fe608060405234801561001057600080fd5b50600436106100b45760003560e01c80638a19c8bc116100715780638a19c8bc14610218578063903d42961461023757806395d4063f1461024a578063a694fc3a1461025d578063be04ffd914610270578063edab62f51461028357600080fd5b80630ac6702a146100b95780631b3bd527146100e95780633b09d3b51461015e5780634255a1c2146101cf5780634574ecff146101e45780637776768f14610205575b600080fd5b6002546100cc906001600160a01b031681565b6040516001600160a01b0390911681526020015b60405180910390f35b6101316100f7366004611623565b60ff166000908152600360208190526040909120805460018201546002830154938301546004840154600590940154929591949390929091565b604080519687526020870195909552938501929092526060840152608083015260a082015260c0016100e0565b6101b461016c36600461163d565b60ff9190911660009081526003602090815260408083206001600160a01b03909416835260068401825280832054600785018352818420546008909501909252909120549092565b604080519384526020840192909252908201526060016100e0565b6101e26101dd36600461159c565b610296565b005b6101f76101f236600461151a565b6103ad565b6040519081526020016100e0565b6001546100cc906001600160a01b031681565b6000546102259060ff1681565b60405160ff90911681526020016100e0565b6101e2610245366004611601565b610403565b6101e2610258366004611623565b610411565b6101e261026b36600461156c565b61041e565b6101f761027e366004611623565b61057b565b6101e2610291366004611601565b61059d565b60005461010090046001600160a01b031633146102c657604051634755657960e01b815260040160405180910390fd5b6000805460ff168152600360205260408120906102e4868686610799565b9050816003015481101561030b5760405163d2b3b7e960e01b815260040160405180910390fd5b6000805461031d9060ff16600161174f565b60ff81166000908152600360205260408120919250908190610341908b86896107b3565b6000805460ff191660ff8716908117909155604080518e815260208101859052908101839052606081019190915291935091507f332ab8cb2abb1a5c0619be13c533c05a84279ef1d2d78814f594f39df59122419060800160405180910390a150505050505050505050565b60ff81166000908152600360209081526040808320815160608101909252603980835290926103ef9291906118cb90830139426103ea848861080a565b61094d565b6103f9818561080a565b9150505b92915050565b61040d8282610999565b5050565b61041b3382610b22565b50565b6000805460ff168082526003602052604090912090610450576040516350f7da1560e11b815260040160405180910390fd5b42816003015410806104655750428160020154115b1561048357604051636a67d54960e01b815260040160405180910390fd5b816104a1576040516315ad0dc760e21b815260040160405180910390fd5b6000546104b390829060ff1633610cbf565b6001546104cb906001600160a01b0316333085610e3d565b336000908152600882016020526040812080548492906104ec908490611737565b92505081905550818160040160008282546105079190611737565b90915550503360008181526006830160209081526040808320546008860183528184205493548251888152938401919091529082019290925260ff90911660608201527f9a2358088aa909a8c4d7b59a65c916782d62ee73d14b851be57582ed69e3ccb09060800160405180910390a25050565b60ff8116600090815260036020526040812061059681610eae565b9392505050565b60005460ff908116908216106105dc576000546040516365d621ed60e01b815260ff808416600483015290911660248201526044015b60405180910390fd5b60ff811660009081526003602052604090206105f8813361080a565b15610607576106073383610b22565b3360009081526008820160205260408120549061062485836117f5565b90508015610636576106368185610999565b6000805460ff16808252600360205260409091209061065790829033610cbf565b336000908152600885016020526040812080548892906106789084906117f5565b90915550503360009081526008820160205260408120805488929061069e908490611737565b92505081905550858460040160008282546106b991906117f5565b92505081905550858160040160008282546106d49190611737565b909155505033600081815260068301602090815260408083205460088601835281842054935482518c8152938401919091529082019290925260ff90911660608201527f9a2358088aa909a8c4d7b59a65c916782d62ee73d14b851be57582ed69e3ccb09060800160405180910390a2600054604080513381526020810189905260ff888116828401529092166060830152517f546af5173ec580ce2f8eb21d6efbe16430d69c880c6d83a5f455b9f4022843ad9181900360800190a1505050505050565b60006107ab8484846000806000610fb5565b949350505050565b828455600284018290556000806107d060ff841662015180611788565b6107df9062ffffff1685611737565b6003870181905560058701949094555050670de0b6b3a7640000600185015550600290920154929050565b6001600160a01b0381166000908152600683016020526040812054610860576108586040518060400160405280600e81526020016d06765745265776172642073746f760941b815250611174565b5060006103fd565b6001600160a01b038216600090815260068401602052604081205461088485610eae565b61088e91906117f5565b6001600160a01b0384166000908152600886016020526040812054919250633b9aca006108bb84846117b3565b6108c59190611774565b6001600160a01b03861660009081526007880160205260409020546108ea9190611737565b90506109446040518060400160405280600981526020016819d95d14995dd85c9960ba1b81525061091a88610eae565b6001600160a01b038816600090815260068a01602052604090205461093f87876117b3565b6111b7565b95945050505050565b610994838383604051602401610965939291906116e3565b60408051601f198184030181529190526020810180516001600160e01b031663969cdd0360e01b1790526111fc565b505050565b60ff811660009081526003602052604090206109b6818333610cbf565b60005460ff90811690831611156109f1576000546040516365d621ed60e01b815260ff808516600483015290911660248201526044016105d3565b82600019811415610a1057503360009081526008820160205260409020545b336000908152600883016020526040902054811115610a59573360009081526008830160205260409081902054905163cebd519360e01b815260048101919091526024016105d3565b33600090815260088301602052604081208054839290610a7a9084906117f5565b9250508190555080826004016000828254610a9591906117f5565b9091555050600154610ab1906001600160a01b0316338361121d565b3360008181526006840160209081526040808320546008870183528184205493548251878152938401919091529082019290925260ff90911660608201527f66ecb22c263001ecfe4aecc5a075cfbc877869d3fab02728b0f8bfb8b08bf6d19060800160405180910390a250505050565b60005460ff9081169082161115610b5d576000546040516365d621ed60e01b815260ff808416600483015290911660248201526044016105d3565b60ff8116600090815260036020526040812090610b7a828561080a565b905080610b9a57604051632706c9e160e21b815260040160405180910390fd5b6001600160a01b0384166000908152600783016020526040812055610bbe82610eae565b6001600160a01b038086166000908152600685016020526040902091909155600254610bec9116858361121d565b6002546040516370a0823160e01b81523060048201526000916001600160a01b0316906370a082319060240160206040518083038186803b158015610c3057600080fd5b505afa158015610c44573d6000803e3d6000fd5b505050506040513d601f19601f82011682018060405250810190610c689190611584565b604080518481526020810183905260ff87168183015290519192506001600160a01b038716917fae4ef7abdb28a08e41e77990def7c7d8d3f4133e8838005bc1a49fe137dbfcfa9181900360600190a25050505050565b610ce5604051806040016040528060058152602001641cdd185c9d60da1b815250611174565b610cef838261080a565b6001600160a01b038216600081815260078601602081815260408084208690558051808201909152600381526231323360e81b81830152939092529052610d359161124d565b610d3e83610eae565b6001600160a01b038216600090815260068501602090815260409182902083905560018601839055815180830190925260038252621a1a9b60e91b90820152610d869161124d565b426005840155604080518082018252601e81527f636f6e747261637420757064617465706f6f6c207573657252657761726400006020808301919091526001600160a01b0384166000908152600787019091529190912054610de8919061124d565b6001830154600484015460408051928352602083019190915260ff84169082015233907f7994e9f3b8680cde12b3d4f603192419ae0154049b1c5cc3157262c90ab4f9239060600160405180910390a2505050565b6040516001600160a01b0380851660248301528316604482015260648101829052610ea89085906323b872dd60e01b906084015b60408051601f198184030181529190526020810180516001600160e01b03166001600160e01b031990931692909217909152611292565b50505050565b60008082600301544210610ec6578260030154610ec8565b425b90506000836005015482610edc91906117f5565b9050600084600401549050610f206040518060400160405280600d81526020016c676574496e6465782054696d6560981b81525086600101548588600501546111b7565b81610f3057505050506001015490565b80610f4057505050506001015490565b84546000908290610f5190856117b3565b610f5f90633b9aca006117b3565b610f699190611774565b9050610f9b604051806040016040528060088152602001670cecae892dcc8caf60c31b815250876001015484846111b7565b808660010154610fab9190611737565b9695505050505050565b60006107b25b8761ffff168161ffff16101561101157610fd481611364565b15610fee57610fe76301e2850083611737565b9150610fff565b610ffc6301e1338083611737565b91505b806110098161185b565b915050610fbb565b6110196114ce565b601f815261102689611364565b1561103757601d602082015261103f565b601c60208201525b601f60408201819052601e606083018190526080830182905260a0830181905260c0830182905260e0830182905261010083018190526101208301829052610140830152610160820152600191505b8760ff168261ffff1610156110fe57806110a96001846117d2565b61ffff16600c81106110cb57634e487b7160e01b600052603260045260246000fd5b60200201516110e09060ff16620151806117b3565b6110ea9084611737565b9250816110f68161185b565b92505061108e565b61110960018861180c565b6111199060ff16620151806117b3565b6111239084611737565b925061113460ff8716610e106117b3565b61113e9084611737565b925061114e60ff8616603c6117b3565b6111589084611737565b925061116760ff851684611737565b9998505050505050505050565b61041b8160405160240161118891906116ae565b60408051601f198184030181529190526020810180516001600160e01b031663104c13eb60e21b1790526111fc565b610ea8848484846040516024016111d19493929190611708565b60408051601f198184030181529190526020810180516001600160e01b03166304772b3360e11b1790525b80516a636f6e736f6c652e6c6f67602083016000808483855afa5050505050565b6040516001600160a01b03831660248201526044810182905261099490849063a9059cbb60e01b90606401610e71565b61040d82826040516024016112639291906116c1565b60408051601f198184030181529190526020810180516001600160e01b03166309710a9d60e41b1790526111fc565b60006112e7826040518060400160405280602081526020017f5361666545524332303a206c6f772d6c6576656c2063616c6c206661696c6564815250856001600160a01b03166113c39092919063ffffffff16565b8051909150156109945780806020019051810190611305919061154c565b6109945760405162461bcd60e51b815260206004820152602a60248201527f5361666545524332303a204552433230206f7065726174696f6e20646964206e6044820152691bdd081cdd58d8d9595960b21b60648201526084016105d3565b600061137160048361187d565b61ffff161561138257506000919050565b61138d60648361187d565b61ffff161561139e57506001919050565b6113aa6101908361187d565b61ffff16156113bb57506000919050565b506001919050565b60606107ab848460008585843b61141c5760405162461bcd60e51b815260206004820152601d60248201527f416464726573733a2063616c6c20746f206e6f6e2d636f6e747261637400000060448201526064016105d3565b600080866001600160a01b031685876040516114389190611692565b60006040518083038185875af1925050503d8060008114611475576040519150601f19603f3d011682016040523d82523d6000602084013e61147a565b606091505b509150915061148a828286611495565b979650505050505050565b606083156114a4575081610596565b8251156114b45782518084602001fd5b8160405162461bcd60e51b81526004016105d391906116ae565b604051806101800160405280600c906020820280368337509192915050565b80356001600160a01b038116811461150457600080fd5b919050565b803560ff8116811461150457600080fd5b6000806040838503121561152c578182fd5b611535836114ed565b915061154360208401611509565b90509250929050565b60006020828403121561155d578081fd5b81518015158114610596578182fd5b60006020828403121561157d578081fd5b5035919050565b600060208284031215611595578081fd5b5051919050565b600080600080600060a086880312156115b3578081fd5b85359450602086013561ffff811681146115cb578182fd5b93506115d960408701611509565b92506115e760608701611509565b91506115f560808701611509565b90509295509295909350565b60008060408385031215611613578182fd5b8235915061154360208401611509565b600060208284031215611634578081fd5b61059682611509565b6000806040838503121561164f578182fd5b61165883611509565b9150611543602084016114ed565b6000815180845261167e81602086016020860161182f565b601f01601f19169290920160200192915050565b600082516116a481846020870161182f565b9190910192915050565b6020815260006105966020830184611666565b6040815260006116d46040830185611666565b90508260208301529392505050565b6060815260006116f66060830186611666565b60208301949094525060400152919050565b60808152600061171b6080830187611666565b6020830195909552506040810192909252606090910152919050565b6000821982111561174a5761174a61189e565b500190565b600060ff821660ff84168060ff0382111561176c5761176c61189e565b019392505050565b600082611783576117836118b4565b500490565b600062ffffff808316818516818304811182151516156117aa576117aa61189e565b02949350505050565b60008160001904831182151516156117cd576117cd61189e565b500290565b600061ffff838116908316818110156117ed576117ed61189e565b039392505050565b6000828210156118075761180761189e565b500390565b600060ff821660ff8416808210156118265761182661189e565b90039392505050565b60005b8381101561184a578181015183820152602001611832565b83811115610ea85750506000910152565b600061ffff808316818114156118735761187361189e565b6001019392505050565b600061ffff80841680611892576118926118b4565b92169190910692915050565b634e487b7160e01b600052601160045260246000fd5b634e487b7160e01b600052601260045260246000fdfe636f6e7472616374206765745573657252657761726420626c6f636b74696d657374616d702c2062656c6f7720697320676574526577617264a26469706673582212209686fe8a91cde7e8e3dd06934096fe7f846f0e143181cb4393256fd2c39a18d664736f6c63430008040033",
  "devdoc": {
    "kind": "dev",
    "methods": {},
    "version": 1
  },
  "userdoc": {
    "kind": "user",
    "methods": {},
    "version": 1
  },
  "storageLayout": {
    "storage": [
      {
        "astId": 1259,
        "contract": "contracts/StakingPool.sol:StakingPool",
        "label": "currentRound",
        "offset": 0,
        "slot": "0",
        "type": "t_uint8"
      },
      {
        "astId": 1261,
        "contract": "contracts/StakingPool.sol:StakingPool",
        "label": "_admin",
        "offset": 1,
        "slot": "0",
        "type": "t_address"
      },
      {
        "astId": 1264,
        "contract": "contracts/StakingPool.sol:StakingPool",
        "label": "stakingAsset",
        "offset": 0,
        "slot": "1",
        "type": "t_contract(IERC20)623"
      },
      {
        "astId": 1267,
        "contract": "contracts/StakingPool.sol:StakingPool",
        "label": "rewardAsset",
        "offset": 0,
        "slot": "2",
        "type": "t_contract(IERC20)623"
      },
      {
        "astId": 1272,
        "contract": "contracts/StakingPool.sol:StakingPool",
        "label": "_rounds",
        "offset": 0,
        "slot": "3",
        "type": "t_mapping(t_uint8,t_struct(PoolData)1257_storage)"
      }
    ],
    "types": {
      "t_address": {
        "encoding": "inplace",
        "label": "address",
        "numberOfBytes": "20"
      },
      "t_contract(IERC20)623": {
        "encoding": "inplace",
        "label": "contract IERC20",
        "numberOfBytes": "20"
      },
      "t_mapping(t_address,t_uint256)": {
        "encoding": "mapping",
        "key": "t_address",
        "label": "mapping(address => uint256)",
        "numberOfBytes": "32",
        "value": "t_uint256"
      },
      "t_mapping(t_uint8,t_struct(PoolData)1257_storage)": {
        "encoding": "mapping",
        "key": "t_uint8",
        "label": "mapping(uint8 => struct StakingPool.PoolData)",
        "numberOfBytes": "32",
        "value": "t_struct(PoolData)1257_storage"
      },
      "t_struct(PoolData)1257_storage": {
        "encoding": "inplace",
        "label": "struct StakingPool.PoolData",
        "members": [
          {
            "astId": 1234,
            "contract": "contracts/StakingPool.sol:StakingPool",
            "label": "rewardPerSecond",
            "offset": 0,
            "slot": "0",
            "type": "t_uint256"
          },
          {
            "astId": 1236,
            "contract": "contracts/StakingPool.sol:StakingPool",
            "label": "rewardIndex",
            "offset": 0,
            "slot": "1",
            "type": "t_uint256"
          },
          {
            "astId": 1238,
            "contract": "contracts/StakingPool.sol:StakingPool",
            "label": "startTimestamp",
            "offset": 0,
            "slot": "2",
            "type": "t_uint256"
          },
          {
            "astId": 1240,
            "contract": "contracts/StakingPool.sol:StakingPool",
            "label": "endTimestamp",
            "offset": 0,
            "slot": "3",
            "type": "t_uint256"
          },
          {
            "astId": 1242,
            "contract": "contracts/StakingPool.sol:StakingPool",
            "label": "totalPrincipal",
            "offset": 0,
            "slot": "4",
            "type": "t_uint256"
          },
          {
            "astId": 1244,
            "contract": "contracts/StakingPool.sol:StakingPool",
            "label": "lastUpdateTimestamp",
            "offset": 0,
            "slot": "5",
            "type": "t_uint256"
          },
          {
            "astId": 1248,
            "contract": "contracts/StakingPool.sol:StakingPool",
            "label": "userIndex",
            "offset": 0,
            "slot": "6",
            "type": "t_mapping(t_address,t_uint256)"
          },
          {
            "astId": 1252,
            "contract": "contracts/StakingPool.sol:StakingPool",
            "label": "userReward",
            "offset": 0,
            "slot": "7",
            "type": "t_mapping(t_address,t_uint256)"
          },
          {
            "astId": 1256,
            "contract": "contracts/StakingPool.sol:StakingPool",
            "label": "userPrincipal",
            "offset": 0,
            "slot": "8",
            "type": "t_mapping(t_address,t_uint256)"
          }
        ],
        "numberOfBytes": "288"
      },
      "t_uint256": {
        "encoding": "inplace",
        "label": "uint256",
        "numberOfBytes": "32"
      },
      "t_uint8": {
        "encoding": "inplace",
        "label": "uint8",
        "numberOfBytes": "1"
      }
    }
  }
}