{
  "address": "0x9fE46736679d2D9a65F0992F2272dE9f3c7fa6e0",
  "abi": [
    {
      "inputs": [
        {
          "internalType": "address",
          "name": "stakingAsset_",
          "type": "address"
        },
        {
          "internalType": "address",
          "name": "rewardAsset_",
          "type": "address"
        }
      ],
      "stateMutability": "nonpayable",
      "type": "constructor"
    },
    {
      "inputs": [],
      "name": "InvaidAmount",
      "type": "error"
    },
    {
      "inputs": [
        {
          "internalType": "uint256",
          "name": "principal",
          "type": "uint256"
        }
      ],
      "name": "NotEnoughPrincipal",
      "type": "error"
    },
    {
      "inputs": [],
      "name": "NotInRound",
      "type": "error"
    },
    {
      "inputs": [
        {
          "internalType": "uint8",
          "name": "round",
          "type": "uint8"
        },
        {
          "internalType": "uint8",
          "name": "currentRound",
          "type": "uint8"
        }
      ],
      "name": "NotInitiatedRound",
      "type": "error"
    },
    {
      "inputs": [],
      "name": "OnlyAdmin",
      "type": "error"
    },
    {
      "inputs": [],
      "name": "RoundConflicted",
      "type": "error"
    },
    {
      "inputs": [],
      "name": "StakingNotInitiated",
      "type": "error"
    },
    {
      "inputs": [],
      "name": "ZeroPrincipal",
      "type": "error"
    },
    {
      "inputs": [],
      "name": "ZeroReward",
      "type": "error"
    },
    {
      "anonymous": false,
      "inputs": [
        {
          "indexed": true,
          "internalType": "address",
          "name": "user",
          "type": "address"
        },
        {
          "indexed": false,
          "internalType": "uint256",
          "name": "reward",
          "type": "uint256"
        },
        {
          "indexed": false,
          "internalType": "uint256",
          "name": "rewardLeft",
          "type": "uint256"
        },
        {
          "indexed": false,
          "internalType": "uint8",
          "name": "currentRound",
          "type": "uint8"
        }
      ],
      "name": "Claim",
      "type": "event"
    },
    {
      "anonymous": false,
      "inputs": [
        {
          "indexed": false,
          "internalType": "uint256",
          "name": "rewardPerSecond",
          "type": "uint256"
        },
        {
          "indexed": false,
          "internalType": "uint256",
          "name": "startTimestamp",
          "type": "uint256"
        },
        {
          "indexed": false,
          "internalType": "uint256",
          "name": "endTimestamp",
          "type": "uint256"
        },
        {
          "indexed": false,
          "internalType": "uint256",
          "name": "currentRound",
          "type": "uint256"
        }
      ],
      "name": "InitRound",
      "type": "event"
    },
    {
      "anonymous": false,
      "inputs": [
        {
          "indexed": false,
          "internalType": "address",
          "name": "user",
          "type": "address"
        },
        {
          "indexed": false,
          "internalType": "uint256",
          "name": "amount",
          "type": "uint256"
        },
        {
          "indexed": false,
          "internalType": "uint8",
          "name": "migrateRound",
          "type": "uint8"
        },
        {
          "indexed": false,
          "internalType": "uint8",
          "name": "currentRound",
          "type": "uint8"
        }
      ],
      "name": "Migrate",
      "type": "event"
    },
    {
      "anonymous": false,
      "inputs": [
        {
          "indexed": true,
          "internalType": "address",
          "name": "user",
          "type": "address"
        },
        {
          "indexed": false,
          "internalType": "uint256",
          "name": "amount",
          "type": "uint256"
        },
        {
          "indexed": false,
          "internalType": "uint256",
          "name": "userIndex",
          "type": "uint256"
        },
        {
          "indexed": false,
          "internalType": "uint256",
          "name": "userPrincipal",
          "type": "uint256"
        },
        {
          "indexed": false,
          "internalType": "uint8",
          "name": "currentRound",
          "type": "uint8"
        }
      ],
      "name": "Stake",
      "type": "event"
    },
    {
      "anonymous": false,
      "inputs": [
        {
          "indexed": true,
          "internalType": "address",
          "name": "user",
          "type": "address"
        },
        {
          "indexed": false,
          "internalType": "uint256",
          "name": "amount",
          "type": "uint256"
        },
        {
          "indexed": false,
          "internalType": "uint256",
          "name": "userIndex",
          "type": "uint256"
        },
        {
          "indexed": false,
          "internalType": "uint256",
          "name": "userPrincipal",
          "type": "uint256"
        },
        {
          "indexed": false,
          "internalType": "uint8",
          "name": "currentRound",
          "type": "uint8"
        }
      ],
      "name": "Withdraw",
      "type": "event"
    },
    {
      "inputs": [
        {
          "internalType": "uint8",
          "name": "round",
          "type": "uint8"
        }
      ],
      "name": "claim",
      "outputs": [],
      "stateMutability": "nonpayable",
      "type": "function"
    },
    {
      "inputs": [],
      "name": "currentRound",
      "outputs": [
        {
          "internalType": "uint8",
          "name": "",
          "type": "uint8"
        }
      ],
      "stateMutability": "view",
      "type": "function"
    },
    {
      "inputs": [
        {
          "internalType": "uint8",
          "name": "round",
          "type": "uint8"
        }
      ],
      "name": "getPoolData",
      "outputs": [
        {
          "internalType": "uint256",
          "name": "rewardPerSecond",
          "type": "uint256"
        },
        {
          "internalType": "uint256",
          "name": "rewardIndex",
          "type": "uint256"
        },
        {
          "internalType": "uint256",
          "name": "startTimestamp",
          "type": "uint256"
        },
        {
          "internalType": "uint256",
          "name": "endTimestamp",
          "type": "uint256"
        },
        {
          "internalType": "uint256",
          "name": "totalPrincipal",
          "type": "uint256"
        },
        {
          "internalType": "uint256",
          "name": "lastUpdateTimestamp",
          "type": "uint256"
        }
      ],
      "stateMutability": "view",
      "type": "function"
    },
    {
      "inputs": [
        {
          "internalType": "uint8",
          "name": "round",
          "type": "uint8"
        }
      ],
      "name": "getRewardIndex",
      "outputs": [
        {
          "internalType": "uint256",
          "name": "",
          "type": "uint256"
        }
      ],
      "stateMutability": "view",
      "type": "function"
    },
    {
      "inputs": [
        {
          "internalType": "uint8",
          "name": "round",
          "type": "uint8"
        },
        {
          "internalType": "address",
          "name": "user",
          "type": "address"
        }
      ],
      "name": "getUserData",
      "outputs": [
        {
          "internalType": "uint256",
          "name": "userIndex",
          "type": "uint256"
        },
        {
          "internalType": "uint256",
          "name": "userReward",
          "type": "uint256"
        },
        {
          "internalType": "uint256",
          "name": "userPrincipal",
          "type": "uint256"
        }
      ],
      "stateMutability": "view",
      "type": "function"
    },
    {
      "inputs": [
        {
          "internalType": "address",
          "name": "user",
          "type": "address"
        },
        {
          "internalType": "uint8",
          "name": "round",
          "type": "uint8"
        }
      ],
      "name": "getUserReward",
      "outputs": [
        {
          "internalType": "uint256",
          "name": "",
          "type": "uint256"
        }
      ],
      "stateMutability": "view",
      "type": "function"
    },
    {
      "inputs": [
        {
          "internalType": "uint256",
          "name": "rewardPerSecond",
          "type": "uint256"
        },
        {
          "internalType": "uint16",
          "name": "year",
          "type": "uint16"
        },
        {
          "internalType": "uint8",
          "name": "month",
          "type": "uint8"
        },
        {
          "internalType": "uint8",
          "name": "day",
          "type": "uint8"
        },
        {
          "internalType": "uint8",
          "name": "duration",
          "type": "uint8"
        }
      ],
      "name": "initNewRound",
      "outputs": [],
      "stateMutability": "nonpayable",
      "type": "function"
    },
    {
      "inputs": [
        {
          "internalType": "uint256",
          "name": "amount",
          "type": "uint256"
        },
        {
          "internalType": "uint8",
          "name": "round",
          "type": "uint8"
        }
      ],
      "name": "migrate",
      "outputs": [],
      "stateMutability": "nonpayable",
      "type": "function"
    },
    {
      "inputs": [],
      "name": "retrieveResidue",
      "outputs": [],
      "stateMutability": "nonpayable",
      "type": "function"
    },
    {
      "inputs": [],
      "name": "rewardAsset",
      "outputs": [
        {
          "internalType": "contract IERC20",
          "name": "",
          "type": "address"
        }
      ],
      "stateMutability": "view",
      "type": "function"
    },
    {
      "inputs": [
        {
          "internalType": "uint256",
          "name": "amount",
          "type": "uint256"
        }
      ],
      "name": "stake",
      "outputs": [],
      "stateMutability": "nonpayable",
      "type": "function"
    },
    {
      "inputs": [],
      "name": "stakingAsset",
      "outputs": [
        {
          "internalType": "contract IERC20",
          "name": "",
          "type": "address"
        }
      ],
      "stateMutability": "view",
      "type": "function"
    },
    {
      "inputs": [
        {
          "internalType": "uint256",
          "name": "amount",
          "type": "uint256"
        },
        {
          "internalType": "uint8",
          "name": "round",
          "type": "uint8"
        }
      ],
      "name": "withdraw",
      "outputs": [],
      "stateMutability": "nonpayable",
      "type": "function"
    }
  ],
  "transactionHash": "0x10a7ab89595e56595937b80d6d4f8c0506e1524b0264a4e76abc9b9a53536441",
  "args": [
    "0x5FbDB2315678afecb367f032d93F642f64180aa3",
    "0xe7f1725E7734CE288F8367e1Bb143E90bb3F0512"
  ],
  "solcInputHash": "5c117d4de50b1b70ea6dbfb5955230e1",
  "bytecode": "0x608060405234801561001057600080fd5b50604051620017403803806200174083398101604081905261003191610096565b600180546001600160a01b03199081166001600160a01b0394851617909155600280549091169190921617905560008054610100600160a81b03191661010033021790556100c8565b80516001600160a01b038116811461009157600080fd5b919050565b600080604083850312156100a8578182fd5b6100b18361007a565b91506100bf6020840161007a565b90509250929050565b61166880620000d86000396000f3fe608060405234801561001057600080fd5b50600436106100cf5760003560e01c80638a19c8bc1161008c578063a694fc3a11610066578063a694fc3a14610278578063b711c5bc1461028b578063be04ffd914610293578063edab62f5146102a657600080fd5b80638a19c8bc14610233578063903d42961461025257806395d4063f1461026557600080fd5b80630ac6702a146100d45780631b3bd527146101045780633b09d3b5146101795780634255a1c2146101ea5780634574ecff146101ff5780637776768f14610220575b600080fd5b6002546100e7906001600160a01b031681565b6040516001600160a01b0390911681526020015b60405180910390f35b61014c61011236600461140d565b60ff166000908152600360208190526040909120805460018201546002830154938301546004840154600590940154929591949390929091565b604080519687526020870195909552938501929092526060840152608083015260a082015260c0016100fb565b6101cf610187366004611427565b60ff9190911660009081526003602090815260408083206001600160a01b03909416835260068401825280832054600785018352818420546008909501909252909120549092565b604080519384526020840192909252908201526060016100fb565b6101fd6101f8366004611386565b6102b9565b005b61021261020d366004611304565b6103d0565b6040519081526020016100fb565b6001546100e7906001600160a01b031681565b6000546102409060ff1681565b60405160ff90911681526020016100fb565b6101fd6102603660046113eb565b6103f6565b6101fd61027336600461140d565b610404565b6101fd610286366004611356565b610411565b6101fd61056e565b6102126102a136600461140d565b61063c565b6101fd6102b43660046113eb565b61065e565b60005461010090046001600160a01b031633146102e957604051634755657960e01b815260040160405180910390fd5b6000805460ff16815260036020526040812090610307868686610878565b9050816003015481101561032e5760405163d2b3b7e960e01b815260040160405180910390fd5b600080546103409060ff1660016114b7565b60ff81166000908152600360205260408120919250908190610364908b8689610892565b6000805460ff191660ff8716908117909155604080518e815260208101859052908101839052606081019190915291935091507f332ab8cb2abb1a5c0619be13c533c05a84279ef1d2d78814f594f39df59122419060800160405180910390a150505050505050505050565b60ff811660009081526003602052604081206103ec81856108e9565b9150505b92915050565b61040082826109a4565b5050565b61040e3382610b28565b50565b6000805460ff168082526003602052604090912090610443576040516350f7da1560e11b815260040160405180910390fd5b42816003015410806104585750428160020154115b1561047657604051636a67d54960e01b815260040160405180910390fd5b81610494576040516315ad0dc760e21b815260040160405180910390fd5b6000546104a690829060ff1633610cc5565b6001546104be906001600160a01b0316333085610d86565b336000908152600882016020526040812080548492906104df90849061149f565b92505081905550818160040160008282546104fa919061149f565b90915550503360008181526006830160209081526040808320546008860183528184205493548251888152938401919091529082019290925260ff90911660608201527f9a2358088aa909a8c4d7b59a65c916782d62ee73d14b851be57582ed69e3ccb09060800160405180910390a25050565b60005461010090046001600160a01b0316331461059e57604051634755657960e01b815260040160405180910390fd5b6000546002546040516370a0823160e01b815230600482015261063a9261010090046001600160a01b039081169216906370a082319060240160206040518083038186803b1580156105ef57600080fd5b505afa158015610603573d6000803e3d6000fd5b505050506040513d601f19601f82011682018060405250810190610627919061136e565b6002546001600160a01b03169190610df7565b565b60ff8116600090815260036020526040812061065781610e2c565b9392505050565b60005460ff9081169082161061069d576000546040516365d621ed60e01b815260ff808416600483015290911660248201526044015b60405180910390fd5b60ff811660009081526003602090815260408083203384526008810190925290912054806106de57604051630b3eb09f60e21b815260040160405180910390fd5b60006106ea858361155d565b90506106f683336108e9565b15610705576107053385610b28565b80156107155761071581856109a4565b6000805460ff16808252600360205260409091209061073690829033610cc5565b3360009081526008850160205260408120805488929061075790849061155d565b90915550503360009081526008820160205260408120805488929061077d90849061149f565b9250508190555085846004016000828254610798919061155d565b92505081905550858160040160008282546107b3919061149f565b909155505033600081815260068301602090815260408083205460088601835281842054935482518c8152938401919091529082019290925260ff90911660608201527f9a2358088aa909a8c4d7b59a65c916782d62ee73d14b851be57582ed69e3ccb09060800160405180910390a2600054604080513381526020810189905260ff888116828401529092166060830152517f546af5173ec580ce2f8eb21d6efbe16430d69c880c6d83a5f455b9f4022843ad9181900360800190a1505050505050565b600061088a8484846000806000610ebd565b949350505050565b828455600284018290556000806108af60ff8416620151806114f0565b6108be9062ffffff168561149f565b6003870181905560058701949094555050670de0b6b3a7640000600185015550600290920154929050565b6001600160a01b0381166000908152600683016020526040812054610910575060006103f0565b6001600160a01b038216600090815260068401602052604081205461093485610e2c565b61093e919061155d565b6001600160a01b0384166000908152600886016020526040812054919250633b9aca0061096b848461151b565b61097591906114dc565b6001600160a01b038616600090815260078801602052604090205461099a919061149f565b9695505050505050565b60ff8082166000818152600360205260408120905490921610156109ec576000546040516365d621ed60e01b815260ff80851660048301529091166024820152604401610694565b82600019811415610a0b57503360009081526008820160205260409020545b336000908152600883016020526040902054811115610a54573360009081526008830160205260409081902054905163cebd519360e01b81526004810191909152602401610694565b610a5f828433610cc5565b33600090815260088301602052604081208054839290610a8090849061155d565b9250508190555080826004016000828254610a9b919061155d565b9091555050600154610ab7906001600160a01b03163383610df7565b3360008181526006840160209081526040808320546008870183528184205493548251878152938401919091529082019290925260ff90911660608201527f66ecb22c263001ecfe4aecc5a075cfbc877869d3fab02728b0f8bfb8b08bf6d19060800160405180910390a250505050565b60005460ff9081169082161115610b63576000546040516365d621ed60e01b815260ff80841660048301529091166024820152604401610694565b60ff8116600090815260036020526040812090610b8082856108e9565b905080610ba057604051632706c9e160e21b815260040160405180910390fd5b6001600160a01b0384166000908152600783016020526040812055610bc482610e2c565b6001600160a01b038086166000908152600685016020526040902091909155600254610bf291168583610df7565b6002546040516370a0823160e01b81523060048201526000916001600160a01b0316906370a082319060240160206040518083038186803b158015610c3657600080fd5b505afa158015610c4a573d6000803e3d6000fd5b505050506040513d601f19601f82011682018060405250810190610c6e919061136e565b604080518481526020810183905260ff87168183015290519192506001600160a01b038716917fae4ef7abdb28a08e41e77990def7c7d8d3f4133e8838005bc1a49fe137dbfcfa9181900360600190a25050505050565b610ccf83826108e9565b6001600160a01b0382166000908152600785016020526040902055610cf383610e2c565b6001600160a01b03821660009081526006850160205260409020819055600184015560038301544210610d2a578260030154610d2c565b425b60058401556001830154600484015460408051928352602083019190915260ff84169082015233907f7994e9f3b8680cde12b3d4f603192419ae0154049b1c5cc3157262c90ab4f9239060600160405180910390a2505050565b6040516001600160a01b0380851660248301528316604482015260648101829052610df19085906323b872dd60e01b906084015b60408051601f198184030181529190526020810180516001600160e01b03166001600160e01b03199093169290921790915261107c565b50505050565b6040516001600160a01b038316602482015260448101829052610e2790849063a9059cbb60e01b90606401610dba565b505050565b60008082600301544210610e44578260030154610e46565b425b90506000836005015482610e5a919061155d565b600485015490915081610e7257505050506001015490565b80610e8257505050506001015490565b84546000908290610e93908561151b565b610ea190633b9aca0061151b565b610eab91906114dc565b905080866001015461099a919061149f565b60006107b25b8761ffff168161ffff161015610f1957610edc8161114e565b15610ef657610eef6301e285008361149f565b9150610f07565b610f046301e133808361149f565b91505b80610f11816115c3565b915050610ec3565b610f216112b8565b601f8152610f2e8961114e565b15610f3f57601d6020820152610f47565b601c60208201525b601f60408201819052601e606083018190526080830182905260a0830181905260c0830182905260e0830182905261010083018190526101208301829052610140830152610160820152600191505b8760ff168261ffff1610156110065780610fb160018461153a565b61ffff16600c8110610fd357634e487b7160e01b600052603260045260246000fd5b6020020151610fe89060ff166201518061151b565b610ff2908461149f565b925081610ffe816115c3565b925050610f96565b611011600188611574565b6110219060ff166201518061151b565b61102b908461149f565b925061103c60ff8716610e1061151b565b611046908461149f565b925061105660ff8616603c61151b565b611060908461149f565b925061106f60ff85168461149f565b9998505050505050505050565b60006110d1826040518060400160405280602081526020017f5361666545524332303a206c6f772d6c6576656c2063616c6c206661696c6564815250856001600160a01b03166111ad9092919063ffffffff16565b805190915015610e2757808060200190518101906110ef9190611336565b610e275760405162461bcd60e51b815260206004820152602a60248201527f5361666545524332303a204552433230206f7065726174696f6e20646964206e6044820152691bdd081cdd58d8d9595960b21b6064820152608401610694565b600061115b6004836115e5565b61ffff161561116c57506000919050565b6111776064836115e5565b61ffff161561118857506001919050565b611194610190836115e5565b61ffff16156111a557506000919050565b506001919050565b606061088a848460008585843b6112065760405162461bcd60e51b815260206004820152601d60248201527f416464726573733a2063616c6c20746f206e6f6e2d636f6e74726163740000006044820152606401610694565b600080866001600160a01b031685876040516112229190611450565b60006040518083038185875af1925050503d806000811461125f576040519150601f19603f3d011682016040523d82523d6000602084013e611264565b606091505b509150915061127482828661127f565b979650505050505050565b6060831561128e575081610657565b82511561129e5782518084602001fd5b8160405162461bcd60e51b8152600401610694919061146c565b604051806101800160405280600c906020820280368337509192915050565b80356001600160a01b03811681146112ee57600080fd5b919050565b803560ff811681146112ee57600080fd5b60008060408385031215611316578182fd5b61131f836112d7565b915061132d602084016112f3565b90509250929050565b600060208284031215611347578081fd5b81518015158114610657578182fd5b600060208284031215611367578081fd5b5035919050565b60006020828403121561137f578081fd5b5051919050565b600080600080600060a0868803121561139d578081fd5b85359450602086013561ffff811681146113b5578182fd5b93506113c3604087016112f3565b92506113d1606087016112f3565b91506113df608087016112f3565b90509295509295909350565b600080604083850312156113fd578182fd5b8235915061132d602084016112f3565b60006020828403121561141e578081fd5b610657826112f3565b60008060408385031215611439578182fd5b611442836112f3565b915061132d602084016112d7565b60008251611462818460208701611597565b9190910192915050565b602081526000825180602084015261148b816040850160208701611597565b601f01601f19169190910160400192915050565b600082198211156114b2576114b2611606565b500190565b600060ff821660ff84168060ff038211156114d4576114d4611606565b019392505050565b6000826114eb576114eb61161c565b500490565b600062ffffff8083168185168183048111821515161561151257611512611606565b02949350505050565b600081600019048311821515161561153557611535611606565b500290565b600061ffff8381169083168181101561155557611555611606565b039392505050565b60008282101561156f5761156f611606565b500390565b600060ff821660ff84168082101561158e5761158e611606565b90039392505050565b60005b838110156115b257818101518382015260200161159a565b83811115610df15750506000910152565b600061ffff808316818114156115db576115db611606565b6001019392505050565b600061ffff808416806115fa576115fa61161c565b92169190910692915050565b634e487b7160e01b600052601160045260246000fd5b634e487b7160e01b600052601260045260246000fdfea2646970667358221220bb1f58a3621b0a0ba466f69ac341e6ee40ed96d9dbbaa9a366f7a33ece0a6bff64736f6c63430008040033",
  "devdoc": {
    "kind": "dev",
    "methods": {},
    "version": 1
  },
  "userdoc": {
    "kind": "user",
    "methods": {},
    "version": 1
  },
  "storageLayout": {
    "storage": [
      {
        "astId": 1258,
        "contract": "contracts/StakingPool.sol:StakingPool",
        "label": "currentRound",
        "offset": 0,
        "slot": "0",
        "type": "t_uint8"
      },
      {
        "astId": 1260,
        "contract": "contracts/StakingPool.sol:StakingPool",
        "label": "_admin",
        "offset": 1,
        "slot": "0",
        "type": "t_address"
      },
      {
        "astId": 1263,
        "contract": "contracts/StakingPool.sol:StakingPool",
        "label": "stakingAsset",
        "offset": 0,
        "slot": "1",
        "type": "t_contract(IERC20)623"
      },
      {
        "astId": 1266,
        "contract": "contracts/StakingPool.sol:StakingPool",
        "label": "rewardAsset",
        "offset": 0,
        "slot": "2",
        "type": "t_contract(IERC20)623"
      },
      {
        "astId": 1271,
        "contract": "contracts/StakingPool.sol:StakingPool",
        "label": "_rounds",
        "offset": 0,
        "slot": "3",
        "type": "t_mapping(t_uint8,t_struct(PoolData)1256_storage)"
      }
    ],
    "types": {
      "t_address": {
        "encoding": "inplace",
        "label": "address",
        "numberOfBytes": "20"
      },
      "t_contract(IERC20)623": {
        "encoding": "inplace",
        "label": "contract IERC20",
        "numberOfBytes": "20"
      },
      "t_mapping(t_address,t_uint256)": {
        "encoding": "mapping",
        "key": "t_address",
        "label": "mapping(address => uint256)",
        "numberOfBytes": "32",
        "value": "t_uint256"
      },
      "t_mapping(t_uint8,t_struct(PoolData)1256_storage)": {
        "encoding": "mapping",
        "key": "t_uint8",
        "label": "mapping(uint8 => struct StakingPool.PoolData)",
        "numberOfBytes": "32",
        "value": "t_struct(PoolData)1256_storage"
      },
      "t_struct(PoolData)1256_storage": {
        "encoding": "inplace",
        "label": "struct StakingPool.PoolData",
        "members": [
          {
            "astId": 1233,
            "contract": "contracts/StakingPool.sol:StakingPool",
            "label": "rewardPerSecond",
            "offset": 0,
            "slot": "0",
            "type": "t_uint256"
          },
          {
            "astId": 1235,
            "contract": "contracts/StakingPool.sol:StakingPool",
            "label": "rewardIndex",
            "offset": 0,
            "slot": "1",
            "type": "t_uint256"
          },
          {
            "astId": 1237,
            "contract": "contracts/StakingPool.sol:StakingPool",
            "label": "startTimestamp",
            "offset": 0,
            "slot": "2",
            "type": "t_uint256"
          },
          {
            "astId": 1239,
            "contract": "contracts/StakingPool.sol:StakingPool",
            "label": "endTimestamp",
            "offset": 0,
            "slot": "3",
            "type": "t_uint256"
          },
          {
            "astId": 1241,
            "contract": "contracts/StakingPool.sol:StakingPool",
            "label": "totalPrincipal",
            "offset": 0,
            "slot": "4",
            "type": "t_uint256"
          },
          {
            "astId": 1243,
            "contract": "contracts/StakingPool.sol:StakingPool",
            "label": "lastUpdateTimestamp",
            "offset": 0,
            "slot": "5",
            "type": "t_uint256"
          },
          {
            "astId": 1247,
            "contract": "contracts/StakingPool.sol:StakingPool",
            "label": "userIndex",
            "offset": 0,
            "slot": "6",
            "type": "t_mapping(t_address,t_uint256)"
          },
          {
            "astId": 1251,
            "contract": "contracts/StakingPool.sol:StakingPool",
            "label": "userReward",
            "offset": 0,
            "slot": "7",
            "type": "t_mapping(t_address,t_uint256)"
          },
          {
            "astId": 1255,
            "contract": "contracts/StakingPool.sol:StakingPool",
            "label": "userPrincipal",
            "offset": 0,
            "slot": "8",
            "type": "t_mapping(t_address,t_uint256)"
          }
        ],
        "numberOfBytes": "288"
      },
      "t_uint256": {
        "encoding": "inplace",
        "label": "uint256",
        "numberOfBytes": "32"
      },
      "t_uint8": {
        "encoding": "inplace",
        "label": "uint8",
        "numberOfBytes": "1"
      }
    }
  }
}